:020000040800F2
:10000000900A002099010008A1010008A30100083E
:10001000A5010008A7010008A901000800000000D0
:10002000000000000000000000000000AB0100081C
:10003000AD01000800000000AF0100081909000828
:10004000B3010008B3010008B3010008B3010008C0
:10005000B3010008B3010008B3010008B3010008B0
:10006000B3010008B3010008B3010008B3010008A0
:10007000B3010008B3010008B3010008B301000890
:10008000B3010008B3010008B3010008B301000880
:10009000B3010008B3010008B3010008B301000870
:1000A000B3010008B3010008B3010008B301000860
:1000B00089090008A9090008B3010008B301000874
:1000C000B3010008B3010008B3010008B301000840
:1000D000B3010008ED090008350A0008B301000863
:1000E000B3010008B3010008B301000800F002F8F2
:1000F00000F042F80AA090E8000C82448344AAF180
:100100000107DA4501D100F037F8AFF2090EBAE87D
:100110000F0013F0010F18BFFB1A43F0010318473B
:10012000B4140000D4140000103A24BF78C878C179
:10013000FAD8520724BF30C830C144BF04680C60ED
:10014000704700000023002400250026103A28BF35
:1001500078C1FBD8520728BF30C148BF0B60704739
:10016000642900F07580782900F0AE800020704787
:100170001FB51FBD10B510BD00F067FA1146FFF79F
:10018000F7FF00F045FF00F085FA03B4FFF7F2FF38
:1001900003BC00F089FA000009488047094800477D
:1001A000FEE7FEE7FEE7FEE7FEE7FEE7FEE7FEE727
:1001B000FEE7FEE704480549054A064B7047000084
:1001C00029090008ED00000890040020900A002092
:1001D00090060020900600200FB41CB5074B06AA1D
:1001E0007B4469460090059800F011FA00206946AA
:1001F00000F020FA1CBC5DF814FB00005104000064
:1002000070B5044685690068C10601D5302600E056
:100210002026C00707D070BDD4E9012130469047A1
:10022000206A401C20626D1EF6D570BD70B5044674
:1002300085690078C00707D170BDD4E9012120206D
:100240009047206A401C20626D1EF6D570BD0000EC
:100250002DE9F0410646002410687529314616A59F
:1002600010D0AFF30080002802DA404213A507E067
:1002700031688A0701D512A502E0490704D511A506
:10028000012401E0AFF3008000210A2206F12407D7
:1002900009E0B0FBF2FCB0FBF2F302FB1C003030D3
:1002A00078541846491C0028F3D123462A46304684
:1002B000BDE8F04100F04DB9000000002D00000045
:1002C0002B0000002000000070B504460D462146BA
:1002D0001068AFF300802188090502D50F4A7A44DF
:1002E00002E00E4A7A440E32002104F1240305E0B4
:1002F00000F00F060009965D5E54491C0028F7D1F6
:1003000020780023000704D5702D02D009B1022304
:1003100011322046BDE8704000F01BB99012000079
:100320002DE9F05F894604464FF0000ADFF824B15A
:10033000FB44C0F820A02046E168884700287DD013
:10034000252806D0D4E901219047206A401C20626C
:10035000F1E700255F462046E168884720280646E9
:1003600007DB312E05D2B81910F8200C08B105436F
:10037000F1E7A80701D525F00405C4F81CA0002763
:10038000C4F818A02A2E09D0304600F061FB38B31B
:1003900004EB8708303EC8F8186019E059F8041BD0
:1003A000204604EB87029161E1688847012F0646E9
:1003B00018D1E069002820DA25F020051DE0D8F8E2
:1003C000180000EB800006EB40003038C8F8180039
:1003D0002046E1688847064600F03AFB0028EED147
:1003E000012F0AD02E2E08D12046E16888477F1CB5
:1003F0000646022F45F02005C4DBA069002803DA79
:10040000404245F00105A061E80701D025F0100544
:10041000A6B1A6F14100192802D8203645F400659E
:100420004A463146204625604D46FFF799FE60B1A9
:10043000012807D0ED1D25F0070000E007E000F1DE
:10044000080978E705F1040975E730467AE7206A7C
:10045000BDE8F09F6612000030B505460B462A46FF
:1004600013F8014B12F8010B08B1A042F8D01CB1EF
:10047000002802D06D1CF1E7284630BD10B5431CA2
:1004800002E010F8011B71B18107FAD14FF001327F
:1004900002C88C1A8C4314EAC211F9D0C01A0A0699
:1004A00003D0C01E10BDC01A10BD0A0401D0801EAA
:1004B00010BD0902FCD0401E10BD4FF000020429FF
:1004C000C0F0128010F0030C00F01B80CCF1040C83
:1004D000BCF1020F18BF00F8012BA8BF20F8022BB7
:1004E000A1EB0C0100F00DB85FEAC17C24BF00F85D
:1004F000012B00F8012B48BF00F8012B70474FF08B
:10050000000200B5134694469646203922BFA0E863
:100510000C50A0E80C50B1F12001BFF4F7AF09076F
:1005200028BFA0E80C5048BF0CC05DF804EB890060
:1005300028BF40F8042B08BF704748BF20F8022BA3
:1005400011F0804F18BF00F8012B704770477047BB
:1005500070472DE9F0470D4699469246044600F152
:1005600024080168880604D5E06921F010012160A3
:1005700000E00120A84201DD471B00E00027A1693F
:100580007A1902EB0900081AA0612078C00602D48B
:100590002046FFF735FE002608E0D4E901211AF8CD
:1005A00006009047206A401C761C20624E45F4DB12
:1005B0002078C0060AD52046FFF722FE06E0D4E9DF
:1005C000012130209047206A401C2062381EA7F18C
:1005D0000107F4DC07E0D4E9012118F80500904791
:1005E000206A401C2062281EA5F10105F3DC20468C
:1005F000FFF71CFE2078000602D50220BDE8F08738
:100600000120FBE701694A1C02610878704700B5C8
:100610008FB0CDE901310021059105497944CDE93B
:10062000031011466846FFF77BFE0FB000BD0000C7
:10063000E5FFFFFF0A6802F8010B0A60704700003F
:10064000004870473004002070477546FFF7F8FFF8
:10065000AE4605006946534620F00700854618B0AF
:1006600020B5FFF7A7FDBDE820404FF000064FF092
:1006700000074FF000084FF0000B21F00701AC46D7
:10068000ACE8C009ACE8C009ACE8C009ACE8C009F6
:100690008D46704710B50446AFF300802046BDE894
:1006A0001040FFF772BD000001491820ABBEFEE705
:1006B0002600020000F01F02012191404209920031
:1006C00002F1E022C2F80011704700F01F02012180
:1006D00091404209920002F1E022C2F800117047F5
:1006E00010B50F48006840F080700D49086000F0B8
:1006F00083F840F2E51000F0F5F900F069F84120C8
:1007000000F0F0F906480838006800200549087034
:100710004FF4FA7000F0E6F90248007810BD0000CE
:10072000100C01404400002070B50024002516E0A4
:1007300000F062F8022000F0D5F900F049F804203A
:1007400000F0D0F964100848006800F4807008B127
:1007500044F080043E2000F0C5F9681CC5B2082DA5
:10076000E6DB204670BD0000080C014070B5054670
:10077000FFF7B6FF332000F00BF8002404E0FFF78A
:10078000D3FF2855601CC4B2082CF8DB012070BDD3
:1007900070B50446002517E000F02EF8022000F0A6
:1007A000A1F904F0010010B100F012F801E000F02E
:1007B00023F864103E2000F095F900F009F80220BB
:1007C00000F090F9681CC5B2082DE5DB70BD000093
:1007D0000848006820F00C000649086008460068D8
:1007E00040F0040008600846006820F0030008603C
:1007F00070470000040C01400B48806940F008007D
:10080000094988610948006820F004000749086028
:100810000846006840F0080008600846006840F09C
:10082000030008607047000000100240040C014003
:1008300010B500F001F810BD0CB50020019000903B
:100840003348006840F480303149086000BF3048C8
:10085000006800F4003000900198401C019000985E
:1008600018B90198B0F5A06FF1D12948006800F4DB
:10087000003010B10120009001E0002000900098AD
:10088000012843D12348006840F010002149086046
:100890000846006820F0030008600846006840F041
:1008A000020008601A4840681949486008464068D4
:1008B00048600846406840F48060486008464068E8
:1008C00020F47C1048600846406840F4E810486016
:1008D0000846006840F08070086000BF0C4800685F
:1008E00000F000700028F9D00948406820F00300AB
:1008F000074948600846406840F00200486000BF71
:100900000348406800F00C000828F9D10CBD000035
:10091000001002400020024002480068401C0149CB
:1009200008607047C400002010B51348006840F00C
:1009300001001149086008464068104908400E4906
:100940004860084600680E4908400B4908600846A0
:10095000006820F4802008600846406820F4FE000B
:1009600048604FF41F008860FFF762FF4FF000609F
:100970000449086010BD0000001002400000FFF8AC
:10098000FFFFF6FE08ED00E04FF08040008A00F027
:10099000010038B14FF08040008A20F001004FF094
:1009A00080410882704700000E48008800F0010076
:1009B000B8B10C48008820F001000A4908800A48B4
:1009C000C06800F4005030B10748006940F00050A2
:1009D0000549086105E00448006940F400500249F7
:1009E0000861704710040040001001400E48008864
:1009F00000F0200078B10C48008820F020000A495F
:100A00000880091D0988CAB208490868411C074BBB
:100A1000196007490A5405480068B0F5007F02D301
:100A2000002002490860704700380140480000205B
:100A3000A40100200548008800F0200028B10348E8
:100A4000008820F0200001490880704700440040E1
:100A500030380A2801D2012070470020704700007A
:100A60000E4909880E4A1180111D08800021121FAD
:100A7000118001210A4A283A118000BF084918391B
:100A8000098801F001010029F8D0054918390988C1
:100A900021F00101024A183A118070473C00002001
:100AA000282C01400A4800684FF47A71B0FBF1F03D
:100AB00008490860064800680749B0FBF1F007499B
:100AC00008600748806940F4006005498861704704
:100AD000C80000203C00002040420F0040000020E1
:100AE000001002400E4909880E4A1180111D08802D
:100AF0000021121F118001210A4A283A118000BFEB
:100B000008491839098801F001010029F8D0054980
:100B10001839098821F00101024A183A11807047FA
:100B200040000020282C014010B5002400BF00F038
:100B30007BF90028FBD000F03BFA04463CB10020D2
:100B400000F018FA08B1012010BD0020FCE70020D9
:100B5000FAE7000010B54FF400710348FFF7ADFC51
:100B600000200249086010BDA401002048000020B8
:100B700070B504460D460026012D42D100BF00F09D
:100B800053F90028FBD0284600F0DAF900287CD081
:100B900051A1574800F059FCFFF7DCFF55A156481A
:100BA00000F02CFC5549544800F028FC54A1524850
:100BB00000F024FC5048216800F020FC51A14E4870
:100BC00000F01CFC606878B14FA14B4800F016FCA7
:100BD0004CA1494800F012FC4748616800F00EFC47
:100BE00048A1454800F00AFC48A1434800F006FC33
:100BF00047F230524649474800F0F1F80646304681
:100C000070BD022D59D100BF00F00EF90028FBD0B5
:100C100000BF00F0A5F80028FBD0284600F090F9AE
:100C2000002856D03CA1324800F0E8FBFFF792FFC5
:100C300030A1314800F0E2FB3E492F4800F0DEFBD6
:100C40002FA12D4800F0DAFB2B48216800F0D6FBDD
:100C50002CA1294800F0D2FB606878B12AA126486F
:100C600000F0CCFB27A1244800F0C8FB22486168B3
:100C700000F0C4FB23A1204800F0C0FB22A11E48C5
:100C800000F0BCFB39211C4800E022E000F0D5FB5D
:100C90001DA1194800F0B2FB3421174800F0CDFB2C
:100CA0001AA1154800F0AAFB47F23052184919481A
:100CB00000F095F806463046A2E7032D09D12846F4
:100CC00000F03EF928B11CA1094800F097FBFFF79E
:100CD00041FF002094E700004D6F64652073657448
:100CE00020746F2073746174696F6E0D0A000000C8
:100CF000004400404154000000380140B414000892
:100D00003D220000220000002C0000000D0A00001F
:100D1000791400086C1400084D6F646520736574C5
:100D200020746F2061636365737320706F696E74E4
:100D30000D0A0000C91400084D6F646520736574C6
:100D400020746F2061636365737320706F696E74C4
:100D500020616E642073746174696F6E0D0A000007
:100D600010B5FFF7F7FE09A10E4800F06EFB002456
:100D7000002202210C4800F0B5F842F210710B4835
:100D800000F016F80446204610BD00004469736365
:100D90006F6E6E65637420455350383236360D0AD7
:100DA0000000000000440040C21400086C14000859
:100DB00070B505460C4600F0B5F9064608E000F0AF
:100DC00063F828B1284600F069F808B1012070BD29
:100DD00000F0A8F931198842F1D30020F7E72DE996
:100DE000F04107460C461546002600F09BF9804668
:100DF00011E000F049F870B1384600F04FF80646AF
:100E000016B10120BDE8F081204600F047F8064603
:100E10000EB10020F6E700F085F908EB05018842E5
:100E2000E7D30020EEE7000010B5FFF793FE0EA118
:100E3000114800F00AFB0024002202210F4800F0B4
:100E400051F842F210710E48FFF7B2FF04464FF41A
:100E5000FA70FFF705FE42F210710A48FFF7A8FF8B
:100E60000446204610BD000052657365742045534A
:100E700050383236360D0A000044004096140008FF
:100E80006C1400087E1400080348006808B10120B3
:100E900070470020FCE70000480000202DE9F041E9
:100EA000044600250E48FFF7E9FA0646B6F5007F2E
:100EB00009DA21460A48FFF7CFFA10B10120BDE850
:100EC000F0810020FBE72046FFF7D8FA074600250F
:100ED00000E06D1CB5F5007FFBDB00BF0020EEE7F6
:100EE000A401002070B505460C461646FFF732FEF9
:100EF0000EA10F4800F082FA29460D4800F07EFA54
:100F000024B90CA10A4800F079FA09E0012C07D1B4
:100F100009A1074800F072FA3146054800F06EFA60
:100F200006A1034800F06AFA70BD000041540000B9
:100F3000003801403F0000003D0000000D0A0000A5
:100F400038B5044600200090224607A16846FFF706
:100F500043F96A4601210548FFF7C4FF42F21071C8
:100F60000348FFF725FF38BD25640000AC140008D6
:100F70006C14000838B50446002500200090002CB1
:100F800001DD312000E030208DF800006A460121AB
:100F90000548FFF7A7FF42F210710448FFF708FF6A
:100FA0000546284638BD0000111500086C140008DD
:100FB00010B5FFF7CFFD07A1084800F01FFA42F275
:100FC00010710748FFF7F4FE08B1012010BD0020A2
:100FD000FCE7000041540D0A000000000038014009
:100FE0006C1400080848806940F0100006498861C8
:100FF0000648406820F440000449486008464068BC
:1010000040F480104860704700100240001001401A
:1010100086B000F08DF800F035F900F091F9FFF797
:10102000E1FF00F003F9FFF73DFDFFF759FB00BBBF
:101030001F48FFF79BFBE0B11D4800781C49497829
:101040001B4A92781A4BDB78CDE90232CDE90410C5
:101050001748007916494979CDE900101448837979
:10106000C27914A11F48FFF7B7F81E491E4800F0C7
:10107000ECF9FFF759FD18B11CA11B4800F0E5F988
:1010800007E01EA1184800F0B9F941F28830FFF7D7
:10109000E7FC01211D48FFF76BFD0028F1D01CA1E2
:1010A000114800F0ABF900F0A1F800BFFEE7000026
:1010B000040000204453313842323020524F4D203A
:1010C0002530327825303278253032782530327824
:1010D0002530327825303278253032782530327814
:1010E000200D0A004001002000440040496E697450
:1010F00020737563636573730D0A00004E6F206380
:101100006F6E6E656374696F6E0D0A0034000020A7
:10111000436F6E6E65637420737563636573730DDF
:101120000A0000000148006870470000C400002069
:101130002C48006840F480302A49086000BF2948E4
:10114000006800F400300028F9D013202649086018
:1011500024484068234948600846406840F4A0603D
:1011600048600846406840F420504860084640689F
:1011700020F4701048600846406820F480304860D1
:101180000846406820F4003048600846406840F453
:10119000803048600846406848600846406840F42F
:1011A000E01048600846006840F08070086000BFAA
:1011B0000C48006800F000700028F9D00948406829
:1011C00020F00300074948600846406840F00200EC
:1011D000486000BF0348406800F00C000828F9D1BF
:1011E00070470000001002400020024010B50E4879
:1011F000C06940F001000C49C86148F69F4089046D
:10120000088542F20F70888500208884012088823A
:101210008007808940F001008881012008801C201F
:10122000FFF748FA10BD00000010024010B5134847
:10123000C06940F002001149C86148F69F4010495A
:10124000088040F2E730091D088000200C49091F82
:10125000088001200A491439088009481C38008890
:1012600040F0010006491C39088001200449283952
:1012700008801D20FFF71EFA10BD0000001002407C
:101280002804004010B52B48806940F4804029496B
:1012900088610846806940F00400886108468069DA
:1012A00040F0010088612448006820F0C000224915
:1012B00008600846006840F0800008600846006842
:1012C00040F0100008600846006820F440600860A4
:1012D0000846006840F4806008600846006820F412
:1012E000807008609C2015490880081D008840F423
:1012F0000050091D08800846008840F0080008805A
:101300000846008840F0040008800846008840F045
:10131000200008800846008820F480500880081DBE
:10132000008820F44050091D08802520FFF7CDF9E2
:1013300010BD0000001002400408014008380140C0
:1013400010B52B48C06940F400302949C8610846EF
:10135000806940F0040088610846806940F001001F
:1013600088612448006820F44060224908600846EB
:10137000006840F4006008600846006840F480702F
:1013800008600846006820F440400860084600688D
:1013900040F4804008600846006820F480500860EF
:1013A0009C2015490880081D008840F40050091D44
:1013B00008800846008840F0080008800846008839
:1013C00040F0040008800846008840F020000880B3
:1013D0000846008820F480500880081D008820F40A
:1013E0004050091D08802620FFF76FF910BD00004E
:1013F0000010024000080140084400402DE9F0417F
:1014000004460D462846FFF739F887B2002610E05B
:10141000208820F0400020802978204600F00DF838
:1014200000BF208800F040000028FAD06D1C701C1E
:1014300086B2BE42ECDBBDE8F08100BF028802F05C
:101440008002002AFAD08180704730B505460B46ED
:10145000002406E02046621CD4B2195C2846FFF73F
:10146000ECFF185D0028F5D130BD00004F4B0D0A90
:10147000004552524F520D0A004641494C007265D8
:10148000616479002B4950442C002B43495053543C
:101490004154555300002B525354002B474D5200DA
:1014A0004531004530002B55415254002B43574DD8
:1014B0004F4445002B43574A4150002B43574C4162
:1014C00050002B4357514150002B4357534150007C
:1014D0002B43574C4946002B4349505354414D41EF
:1014E00043002B434950535441545553002B434917
:1014F000505354415254002B43495053454E4400DD
:101500002B434950434C4F5345002B4349465352BC
:10151000002B4349504D5558002B434950534552D9
:10152000564552002B4349504D4F4445002B5049DE
:101530004E47005354415455533A3200535441548A
:1015400055533A33005354415455533A340053548D
:10155000415455533A3500000500000000000000DA
:10156000000000000000000000000000000000007B
:101570000000303132333435363738394142434454
:1015800045464030580030313233343536373839FB
:101590006162636465664030780004000008000002
:1015A0000000000000020001000010007061737371
:1015B0003030303000000000383000003138342E38
:1015C0003130362E3135332E313439004D795F5775
:1015D00049464900F415000800000020DC00000026
:1015E00028010008D0160008DC000020B409000023
:1015F000440100080000000000000000000000009E
:1016000000000500000000000000000000000000D5
:10161000000000000000000000000000BC150008F1
:10162000B815000800000000CC150008AC15000833
:1016300000000000000000000000000000000000AA
:10164000000000000000486F73743A206170692E3A
:101650007468696E67737065616B2E636F6D0D0AD8
:10166000004163636570743A202A2F2A0D0A0055E1
:101670007365722D4167656E743A204D6F7A696C9F
:101680006C612F342E302028636F6D706174696235
:101690006C653B2065737038323636204C75613B83
:1016A0002057696E646F7773204E5420352E312990
:1016B0000D0A000D0A0000000000000000A24A040C
:1016C00000000000000000000102030406070809F2
:040000050800019955
:00000001FF
