:020000040800F2
:10000000D00B0020BD010008C5010008C701000891
:10001000C9010008CB010008CD0100080000000064
:10002000000000000000000000000000CF010008F8
:10003000D101000800000000D30100081D1D0008C8
:10004000D7010008D7010008D7010008D701000830
:10005000D7010008D7010008D7010008D701000820
:10006000D7010008D7010008D7010008D701000810
:10007000D7010008D7010008D7010008D701000800
:10008000D7010008D7010008D7010008D7010008F0
:10009000D7010008D7010008D7010008D7010008E0
:1000A000D7010008D7010008D7010008D7010008D0
:1000B000D7010008D7010008D7010008D7010008C0
:1000C000D7010008D7010008D7010008D7010008B0
:1000D000D70100088D1D0008D51D0008D7010008B4
:1000E000D7010008551A0008D701000800F002F8EF
:1000F00000F054F80AA090E8000C82448344AAF16E
:100100000107DA4501D100F049F8AFF2090EBAE86B
:100110000F0013F0010F18BFFB1A43F0010318473B
:100120003038000050380000103A24BF78C878C139
:10013000FAD8520724BF30C830C144BF04680C60ED
:10014000704700000023002400250026103A28BF35
:1001500078C1FBD8520728BF30C148BF0B60704739
:10016000662903F0A682642900F0B280002070475F
:100170001FB59DE8030000F0A5FA00F0A3FD040000
:100180000020002103F056F8401C60600020002190
:1001900003F03AF8E0601FBD10B510BD00F000FF9D
:1001A0001146FFF7E5FF02F0E9FC00F02CFF03B475
:1001B000FFF7F2FF03BC00F05DFF00000948804735
:1001C00009480047FEE7FEE7FEE7FEE7FEE7FEE739
:1001D000FEE7FEE7FEE7FEE704480549054A064B51
:1001E000704700002D1D0008ED000008D00500201C
:1001F000D00B0020D0070020D007002070B50646A5
:1002000000F040FA056806F10B0020F00704B44244
:100210009CBF002070BD2B466A68BAB11068A0422E
:1002200010D304F1080188423CBF5068586007D3DE
:100230005168101941601168091B01605860146011
:10024000101D70BD13465268002AE7D1214628468A
:1002500000F024FA0028DED170BD70B50446051FF9
:1002600000F010FA0068002C14BF446870BD002C28
:1002700018BFAC423CBF20466468F8D301680A1836
:10028000AA4218BF456003D12A680546114401609F
:1002900028684119A1421CBF6C6070BD616869602B
:1002A00021680844286070BD0FB41CB5074B06AA2E
:1002B0007B4469460090059800F0A7FC0020694641
:1002C00000F0B6FC1CBC5DF814FB00007D090000CA
:1002D0002DE9F0410646002410687529314616A51F
:1002E00010D0AFF30080002802DA404213A507E0E7
:1002F00031688A0701D512A502E0490704D511A586
:10030000012401E0AFF3008000210A2206F1240756
:1003100009E0B0FBF2FCB0FBF2F302FB1C00303052
:1003200078541846491C0028F3D123462A46304603
:10033000BDE8F04100F0FCB9000000002D00000015
:100340002B000000200000002DE9F05F89460446E4
:100350004FF0000ADFF824B1FB44C0F820A020468B
:10036000E168884700287DD0252806D0D4E90121FE
:100370009047206A401C2062F1E700255F46204636
:10038000E16888472028064607DB312E05D2B819D8
:1003900010F8200C08B10543F1E7A80701D525F0B6
:1003A0000405C4F81CA00027C4F818A02A2E09D000
:1003B000304601F031FD38B304EB8708303EC8F811
:1003C000186019E059F8041B204604EB870291617C
:1003D000E1688847012F064618D1E069002820DA35
:1003E00025F020051DE0D8F8180000EB800006EB92
:1003F00040003038C8F818002046E16888470646B3
:1004000001F00AFD0028EED1012F0AD02E2E08D1CE
:100410002046E16888477F1C0646022F45F02005EC
:10042000C4DBA069002803DA404245F00105A06161
:10043000E80701D025F01005A6B1A6F14100192862
:1004400002D8203645F400654A46314620462560EC
:100450004D46FFF785FE60B1012807D0ED1D25F060
:10046000070000E007E000F1080978E705F104095A
:1004700075E730467AE7206ABDE8F09F7A340000DD
:1004800070B5064600F002F90468054630460A22B7
:10049000002100F0D2FB2C6070BD10B5431E13F894
:1004A000014F002CFBD105E011F8014B002C03F8A3
:1004B000014B03D0521EF7D20021197010BD30B588
:1004C00005460B462A4613F8014B12F8010B08B1FA
:1004D000A042F8D01CB1002802D06D1CF1E72846DC
:1004E00030BD40EA0103024630B59B0710D14FF002
:1004F000013400E008C208C91D1B9D4315EAC41F52
:10050000F8D013F0FF0102F8011B0DD01B0AF8E729
:1005100011F8013B002B02F8013B05D011F8013B1B
:10052000002B02F8013BF3D130BD10B5431C02E0B3
:1005300010F8011B71B18107FAD14FF0013202C8E6
:100540008C1A8C4314EAC211F9D0C01A0A0603D0DF
:10055000C01E10BDC01A10BD0A0401D0801E10BDFF
:100560000902FCD0401E10BD4FF000020429C0F06B
:10057000128010F0030C00F01B80CCF1040CBCF1D5
:10058000020F18BF00F8012BA8BF20F8022BA1EB27
:100590000C0100F00DB85FEAC17C24BF00F8012B0C
:1005A00000F8012B48BF00F8012B70474FF0000204
:1005B00000B5134694469646203922BFA0E80C5059
:1005C000A0E80C50B1F12001BFF4F7AF090728BF34
:1005D000A0E80C5048BF0CC05DF804EB890028BFB0
:1005E00040F8042B08BF704748BF20F8022B11F0D9
:1005F000804F18BF00F8012B704700004FF0013CFE
:1006000050F8042B51F8043B9A4221D1A2EB0C0381
:10061000934313EACC1317D150F8042B51F8043B41
:100620009A4215D1A2EB0C03934313EACC130BD1DE
:1006300050F8042B51F8043B9A4209D1A2EB0C0369
:10064000934313EACC13DBD04FF00000704700BF98
:10065000D01A01BAB1FA81F101F0180122FA01F0C1
:10066000CB40C1F12001DBB2C0B2C01A2CFA01F3B9
:10067000D11A914311EAC311E6D170477047704710
:10068000704700000048704774050020004870471C
:100690006C050020704770477047704738B50446B6
:1006A0000A4600206946AFF30080002808BF38BD25
:1006B00002460099204600F009FB012038BD0120C8
:1006C00000F066BCF8B5AFF30080054600200C468C
:1006D000102000BF0646A819A0420DD9324669462F
:1006E0000020AFF30080070008BF00F051FC009825
:1006F000A04218BF0546C419FFF7C4FF05600746AE
:10070000F01D20F007004619284600F00AF8B44210
:1007100008BFF8BDA21B31463868BDE8F84000F0BC
:10072000D5BA00210160C0E9011070471020704760
:100730002DE9F0470D4699469246044600F12408FB
:100740000168880604D5E06921F01001216000E00D
:100750000120A84201DD471B00E00027A1697A19AA
:1007600002EB0900081AA0612078C00602D42046D6
:10077000AFF30080002608E0D4E901211AF8060052
:100780009047206A401C761C20624E45F4DB20789E
:10079000C0060AD52046AFF3008006E0D4E9012167
:1007A00030209047206A401C2062381EA7F10107C4
:1007B000F4DC07E0D4E9012118F805009047206A2D
:1007C000401C2062281EA5F10105F3DC2046AFF392
:1007D00000802078000602D50220BDE8F0870120C5
:1007E000FBE770472DE9FF4F0C461E464FF0FF37E1
:1007F0008BB0D2E90001DDF860800A908A46C1F32F
:100800000A5505B93D46002108464FF00000BAF1EF
:10081000000F00F4400005DA00EB80004FF44001C7
:1008200001EA50004FEA9059B9F1010F00DDB946D5
:100830000A9850EA4A000ED044F61050A5F2FF354F
:1008400045432F14B8F1000F1ED07542291E1EDD3E
:10085000C9F100021CE0B8F1010F4FF0000001D017
:10086000302103E0F24305E02154401CB042FBDBA1
:1008700030460022002121540B99C1F80880C1E9BB
:1008800000200FB0BDE8F08FBD1B6D1CDEE74A46AF
:1008900000DA694206A800F009FB06AB93E80700FE
:1008A00003AB83E8070050460A9900F009FC8DE885
:1008B0000700A0F500501F3800900398002D0ADDB6
:1008C00042F21F014A460844002303A903906846E8
:1008D00000F072FE09E0A0F500504A461F380023E0
:1008E00003A90390684600F07CFE8DE80700000431
:1008F000000C03D04FF0FF30410800E01046B8F183
:10090000000F03D00022009215461EE0751E05D48C
:1009100000F0F6F9303262556D1EF9D5B34601226A
:10092000084302D000227F1C04E02078302801D147
:1009300000227F1E002A099784D01DE0112D07DABE
:1009400000F0DEF9303262556D1C50EA0102F5D13B
:10095000084302D00098C8B10EE00021681E05E0EF
:10096000235C625C63542254401E491C8142F7DBC5
:10097000AB46A81B401E0990002004F80B000B9802
:10098000099AC0F80880C0E9002B7AE711264FF0D9
:10099000000857E72DE9F04F88460446D21D22F0A3
:1009A000070191B0D1E90001CDE90A0101F020FA77
:1009B00002460B98C00F01D02D2007E02068810768
:1009C00001D52B2002E0202101EAC000032A099072
:1009D00001D0072A05DB03464146204600F0D6F940
:1009E0000BE12078800601D5E06900E00620B8F12F
:1009F000650F814606D0B8F1660F18D0B8F1670FC1
:100A000070D131E00020B9F1110F009001DB11230A
:100A100001E009F101030AAA01A90CA8FFF7E2FE0F
:100A2000DDE90C70002609F10105834647E001204D
:100A30004B4600904FF000470AAA01A90CA8FFF707
:100A4000D1FEDDE90DB00C995D46002610B909F123
:100A500001000D18B9EB050003D4C0F1FF3609F110
:100A60000105A5EB09002BE0B9F1010F01DA4FF008
:100A700001090020B9F1110F0090484601DD112352
:100A800000E003460AAA01A90CA8FFF7ABFEDDE9C6
:100A90000C704D4600268346207800070AD4AB45EB
:100AA00000DA5D4601A8012D04DD411911F8011C91
:100AB000302907D04F4502DA17F1040F04DA01207C
:100AC00082460FE06D1EEEE7002F02DCED1B3E4478
:100AD00003E0781CA84200DD7D1CB81B00F1010A70
:100AE0004FF000472078000703D4AA4501DB4FF000
:100AF000FF3A0021B7F1004F0DF143088DF8431084
:100B000024D002202B23002F01DA7F422D230A213B
:100B1000021EA0F1010000DC5FB197FBF1FC97FB26
:100B2000F1F201FB1C7C17460CF1300C08F801CDEA
:100B3000EEE7A8F1010003702188090501D54521E0
:100B400000E06521A0F1010800F8011C09980FA937
:100B5000A1EB0807FF1D00B10120411901EBEA706C
:100B6000A1693844081A401EA0612078C00602D44A
:100B70002046AFF30080099828B1D4E901219047BD
:100B8000206A401C20622078C00622D52046AFF3A0
:100B900000801EE0002E04DBB34502DD01A8805D6D
:100BA00000E03020D4E901219047206A401C2062F7
:100BB000761CAAF101005FEA000A0AD100F082F86F
:100BC000C0680168405CD4E901219047206A401C5C
:100BD0002062281EA5F10105DCDC07E0D4E9012133
:100BE00018F8010B9047206A401C2062381EA7F1BC
:100BF0000107F3DC2046AFF30080032011B041E68B
:100C000001694A1C02610878704700B58FB0CDE9D0
:100C100001310021059105497944CDE903101146C0
:100C20006846FFF791FB0FB000BD0000E5FFFFFF36
:100C30000A6802F8010B0A6070472DE9F0479146F7
:100C40000F4680460446002614F8015B2DB100F0E3
:100C500031F80068405DC007F6D12B2D02D02D2D54
:100C600018D0641E4A463946204600F0CFF827B116
:100C70003968A14201D1C7F800804FF00204710524
:100C80000BD54042002803DDFFF700FD0460A007FC
:100C9000BDE8F08746F48066E4E70028F8DAFFF75D
:100CA000F5FC04606FF00040F2E700000048704778
:100CB0006C05002010B500F005F8001D10BD00BF48
:100CC00075250000004870478C05002003464068E9
:100CD0008C46002818BF88423CBF03464068F8D3C2
:100CE00018681844884207D00CF1030020F0070070
:100CF000001D411A521A0146081D0A60FFF7ADBADD
:100D000030B5B0F10A024FEA900E71F100034EEADD
:100D1000817EB0EB0E0061EB91014FEA101E4EEAAE
:100D2000017E10EB0E0041EB11114FEA102E4EEA3E
:100D3000016E10EB0E0041EB11214FEA104E4EEA0E
:100D4000014E10EB0E0041EB1141401841F1000142
:100D50004FEAD00040EA41704FEAD10110EB800524
:100D60004FEA810444EA907444EB01046D1944EBAA
:100D70000404521BA3414FF0000348BF0A3200D5C0
:100D800030BD401C41F1000130BD00002DE9F041B3
:100D90001F46044603260168072A01F4006004DBAD
:100DA00008B116A505E016A503E008B115A500E0F9
:100DB00015A521F010002060A069C01EA0610FB130
:100DC000401EA0612046AFF300804FB1D4E901215D
:100DD00038469047206A401C2062C01C206206E012
:100DE000206AFAE7D4E9012115F8010B9047761E35
:100DF000F8D22046AFF30080BDE8F0814E414E00AE
:100E00006E616E00494E4600696E66002DE9F05F26
:100E1000824615468B4600270AF10104B946007840
:100E2000302801D09DB113E014F8010B0127782878
:100E300003D0582801D045B10AE00DB1102D07D1DB
:100E4000002714F8010B102502E0082500E00A2510
:100E50000026B0460EE005FB080005FB06F1012761
:100E60001FFA80F801EB1046B6F5803F00D3B94673
:100E700014F8010B294600F0B8F80028EBDABBF1B2
:100E8000000F05D00FB1641E00E05446CBF80040BF
:100E9000B9F1000F06D0FFF7F9FB02210160C81E6F
:100EA000BDE8F09F48EA0640FAE700002DE9F04768
:100EB000814616468AB0354878440DC88DE80D0045
:100EC00032487844801C03AC0DC884E80D0041F61C
:100ED0009B300844372190FBF1F290FBF1F5A5F12E
:100EE000800501FB12041B3C02D56442012000E096
:100EF0000020DFF898A080460027FA44AAF1BE0A35
:100F00000EE0E0070AD03246684607EB47010123AE
:100F10000AEB810100F065FB8DE8070064107F1C7F
:100F2000002CEED1194F7F44AE3F19E0E80715D0F1
:100F300007EB04100DF1180A90E80E008AE80E0085
:100F4000C068F04201D1981908903246012306A9E1
:100F500003A800F046FB03AB83E807006D10641C98
:100F6000002DE3D14FF0010332466946B8F1000F7E
:100F700003A802D000F020FB01E000F032FBC9E939
:100F80000001C9F808200AB0BDE8F087A8290000D0
:100F900010B500F047F8BDE8104000F03DB87047CC
:100FA0007546FFF783FEAE4605006946534620F0BE
:100FB0000700854618B020B5FFF70EF9BDE82040C0
:100FC0004FF000064FF000074FF000084FF0000B05
:100FD00021F00701AC46ACE8C009ACE8C009ACE8B8
:100FE000C009ACE8C0098D4670473A2800D23038B5
:100FF00020F02002412A01D3A2F13700884201D318
:101000004FF0FF30704710B50446AFF30080204624
:10101000BDE81040FFF7CBB8002801D000F02AB897
:101020007047000010B5012805D0002103A000F092
:1010300027F8012010BD09A1F8E7000053494752E5
:10104000544D454D3A204F7574206F662068656198
:1010500070206D656D6F7279000000003A20486560
:101060006170206D656D6F727920636F727275703B
:101070007465640001491820ABBEFEE7260002003B
:1010800070B505460C460A2000E06D1C00F011F812
:1010900035B128780028F8D102E0641C00F009F886
:1010A00014B120780028F8D1BDE870400A20AFF3D1
:1010B000008008B569468DF800000320ABBE08BD6E
:1010C0005FEA400C08BF91F0000F4FEA8C234FEA13
:1010D000C12243EA51514FEA1C5018BF00F5F040BD
:1010E0004FEA300018BF41F000415FEA6C5C00F04D
:1010F0002980BCF1FF3F08BF40F080407047130CCF
:1011000006BF12044FF0100C4FF0000C130E04BF7A
:1011100012020CF1080C130F04BF12010CF1040CA5
:10112000930F04BF92000CF1020CD30F04BF5200C6
:101130000CF1010C11464FF00002A0F11F00A0EBD2
:101140000C00704711F0004F08BF704731F00041AC
:101150003FF4D5AF0B0C06BF09044FF0100C4FF055
:10116000000C0B0E04BF09020CF1080C0B0F04BF9E
:1011700009010CF1040C8B0F04BF89000CF1020C67
:10118000CB0F04BF49000CF1010CCCF12003A0EB04
:101190000C0022FA03F302FA0CF241EA030100F117
:1011A0000100704720F07F4C80EA030023F07F4766
:1011B000ACEB070303F57C5300F0004003F1FF03A1
:1011C0002DE980494FEA154B09B44FEA144325EA4B
:1011D0000B4E24EA03480FF2042606EB13274908B6
:1011E0003E785FEA320203FB0667C7F5000707FB9C
:1011F00006F64FEA54374FEAD64606F1020607FBD9
:10120000066CCCF1005C4FEA1C472CEA074C07FB4C
:1012100006F40CFB06F504EB15464FEA961634BFB0
:1012200000204FF000404FEAD13706FB07FC4FEAA1
:101230001C4C0CFB0BF7D21B03FB0CF761EB0701FB
:101240000CFB0EF7B0EB074072EB17420CFB08F7F4
:1012500034BFA2EB0742B2EB074261EB17414FEA02
:101260000C444FEA910706FB07FC4FEA1C4C0CFBB1
:101270000BF7B0EBC74072EB573203FB0CF734BFF0
:10128000A2EBC742B2EBC74261EB57310CFB0EF742
:10129000B0EBC70072EB57720CFB08F734BFA2EB40
:1012A000C702B2EBC70261EB5771039F4FEA81613E
:1012B00041EA921104EBCC044FEAD1374FEA826243
:1012C00006FB07FC42EA90124FEA80604FEA1C4C92
:1012D0000CFB0BF7D21B03FB0CF761EB07010CFBBC
:1012E0000EF7B0EB074072EB17420CFB08F734BF68
:1012F000A2EB0742B2EB074261EB17414FEA8C5574
:101300004FEA910704EB9C2406FB07FC4FEA1C4CB8
:101310000CFB0BF7B0EBC74072EB573203FB0CF73B
:1013200034BFA2EBC742B2EBC74261EB57310CFBB3
:101330000EF7B0EBC70072EB57720CFB08F734BF27
:10134000A2EBC702B2EBC70261EB577115EB4C255C
:101350004FEA816141EA92114FEA82624FEAD13746
:1013600042EA901206FB07FC44F100044FEA806059
:101370004FEA1C4C0CFB0BF7D21B03FB0CF761EB89
:1013800007010CFB0EF7B0EB074072EB17420CFBAA
:1013900008F734BFA2EB0742B2EB074261EB1741FB
:1013A00015EB1C154FEA813141EA92414FEA823236
:1013B00042EA90424FEA80304FEA0C7644F1000452
:1013C00048EA03434EEA0B484FF0000EB2EB080C1C
:1013D00071EB030724BF624639464EEB0E0E4FF009
:1013E000000B0018524149414BEB0B0BB2EB080CC0
:1013F00071EB03077BF1000B24BF624639464EEBCD
:101400000E0E4FF0000B0018524149414BEB0B0BF5
:10141000B2EB080C71EB03077BF1000B24BF6246B3
:1014200039464EEB0E0E51EA020718BF46F0010690
:1014300016EB0E7655F1000254F1000103D5BDE81C
:101440008901BDE80088BDE88901BDE80048B619FA
:10145000524141EB0101A3F10103704780807F7E7F
:101460007D7C7B7A7978777676757473727171701A
:101470006F6E6E6D6C6C6B6A6A69686867666665CC
:101480006464636362616160605F5F5E5E5D5D5C5A
:101490005C5B5B5A5A5959585857575656555555CB
:1014A0005454535352525251515050504F4F4F4E2B
:1014B0004E4D4D4D4C4C4C4B4B4B4A4A4A49494979
:1014C00048484847474747464646454545444444BB
:1014D000444343434342424242414141002B9C46E4
:1014E00030D477002BD01CB54FEA370703B44FF048
:1014F00010004FF01001BAF1000F06D0BCF1000F40
:10150000DCBF40F0080040F008014FF000000FBCC5
:10151000BDE810400BF1010BBBF1010F08BF5FEA02
:10152000170722BF12F1010211F101014FF0004132
:1015300043F1000300F0004043EA00007047F9D394
:101540005708D0E746EA064613F1400F4FEA164621
:101550001FDD13F1200FDFBF16430A4600212033A1
:101560005B42BED0C3F1200746EA064602FA07F7FF
:101570004FEA164646EA0706C3F1200722FA03F2AD
:1015800001FA07F721FA03F14FF0000342EA0702DC
:10159000A7E746EA020646EA06464FEA164646EA44
:1015A0000106BCBF46EA0646360C4FF000034FF07A
:1015B00000024FF0000194E72DE9804C9A469346D3
:1015C00070B491E8380007C831EA400C48BF34EAEB
:1015D000430C03D5FFF7E6FDFFF780FFF0BCBDE845
:1015E000008C2DE9804C9A46934670B491E83800FF
:1015F00007C810F0804F08BF13F0804F03D100F0F0
:1016000005F8FFF76BFFF0BCBDE8008C20F07F47CA
:1016100080EA030023F07F4C07EB0C03A3F57C5317
:1016200000F00040A3F1FE0392F0000F00F0B38041
:1016300095F0000F00F077802DE901494FEA114045
:101640004FEA144621EA004800FB06FC24EA06475C
:1016500008FB06F607FB08F800FB07F718EB06483F
:101660004CEB164C4FEA124B18EB07484FEA154665
:101670004CEB174022EA0B4E0BFB06FC25EA064713
:101680000EFB06F607FB0EFE0BFB07F71EEB064EE6
:101690004CEB164C4FF000061EEB074E4CEB174B75
:1016A00018EB0B0840F1000018EB0E0B58EB00088C
:1016B00040F100008F1A4FF000013CBFC943661B88
:1016C00014BFB5EB040C00213CBFC943F61B4FEA25
:1016D00017444EEA8E0E27EA04454FEA1C4704FBE6
:1016E00007622CEA074C05FB07F70CFB05F604FB29
:1016F0000CFC16EB074642EB174216EB0C4642EB8E
:101700001C421BEB060658EB0202414146EA9E06CC
:1017100001D5BDE80189B619524141EB0101A3F1A0
:101720000103BDE801894FEA14454FEA114724EA55
:10173000054621EA074C05FB07F406FB07F70CFBFF
:1017400006F105FB0CFC11EB074144EB17444FEA93
:10175000124711EB0C4144EB1C4422EA074C05FBF9
:1017600007F206FB07F70CFB06F605FB0CFC16EB75
:10177000074642EB174216EB0C4642EB1C456A1833
:1017800054F1000148BF7047B619524141EB0101C5
:10179000A3F10103704795F0000F37D04FEA1142D3
:1017A0004FEA144721EA024624EA074C02FB07F1FC
:1017B00006FB07F70CFB06F402FB0CFC14EB0744DA
:1017C00041EB17414FEA154714EB0C4441EB1C4128
:1017D00025EA074C02FB07F506FB07F70CFB06F6AC
:1017E00002FB0CFC16EB074645EB174516EB0C46C7
:1017F00045EB1C42121951F1000148BF7047B61960
:10180000524141EB0101A3F1010370474FEA144536
:101810004FEA114724EA054621EA074C05FB07F188
:1018200006FB07F70CFB06F24FF0000605FB0CFC6D
:1018300012EB074241EB174112EB0C4251EB1C41FA
:1018400048BF7047921841EB0101A3F101037047B3
:1018500000F01F02012191404209920002F1E022B2
:10186000C2F80011704700F01F02012191404209A7
:10187000920002F1E022C2F80011704710B50F4843
:10188000006840F080700D49086000F0B7F940F240
:10189000E51000F00DFB00F09DF9412000F008FB81
:1018A0000648083800680020054908704FF4FA70AF
:1018B00000F0FEFA0248007810BD0000100C014054
:1018C0009000002070B50546FFF7D8FF552000F0C6
:1018D000A1F8002404E0285D00F09CF8601CC4B26C
:1018E000082CF8DB012070BD2DE9FE4F804600205A
:1018F000009001900290FFF7C1FF4046FFF7E2FF22
:10190000442000F087F8FFF7B9FF4046FFF7DAFF01
:10191000BE2000F07FF8002705E000F047F80DF842
:101920000700781CC7B2092FF7DB9DF80100702172
:1019300001EA00109DF8001040EA21159DF8000012
:1019400000F00F0606EB460046009DF80100FB285C
:1019500002DDC5F17F00C5B2642E10DA304601F019
:10196000D5FD83460F4901F00FFD8146284601F061
:10197000CDFD8246494601F0A5FC04460FE0304605
:1019800001F0C4FD8346084901F0FEFC814628466B
:1019900001F0BCFD8246494601F094FC0446204615
:1019A000BDE8FE8F0000C84200007A4470B50024F4
:1019B000002516E000F022F9022000F079FA00F08C
:1019C00009F9042000F074FA64100848006800F473
:1019D000807008B144F080043E2000F069FA681C71
:1019E000C5B2082DE6DB204670BD0000080C0140A2
:1019F00070B50546FFF742FF332000F00BF80024D6
:101A000004E0FFF7D3FF2855601CC4B2082CF8DBB4
:101A1000012070BD70B50446002517E000F0EEF817
:101A2000022000F045FA04F0010010B100F0D2F8F5
:101A300001E000F0E3F864103E2000F039FA00F015
:101A4000C9F8022000F034FA681CC5B2082DE5DBA5
:101A500070BD00000548008800F0020028B1022097
:101A600002490880000402490860704704280040C9
:101A70001404014001460A784FF4616302FB03F04D
:101A80004A78C2EB021200EB82008A78521E1044A0
:101A90002B4A128810442A4A121F128800EB024077
:101AA000284A126842F48072264B1A6000BF244A0A
:101AB000183A128802F02002002AF8D0204A183A78
:101AC000128842F010021E4B183B1A801A1F12880F
:101AD00022F002021B1F1A801A1D128822F0020235
:101AE0001B1D1A8000BF164A183A128802F0200205
:101AF000002AF8D0020C124B1B1D1A8000BF104A9E
:101B0000183A128802F02002002AF8D00C4B083351
:101B100018800B4A1C3A128842F00202084B1C3B08
:101B20001A801A1D128822F010021B1D1A8000BF95
:101B3000034A183A128802F02002002AF8D07047AF
:101B40001C2800400070004002784FF4616302FBE3
:101B500003F14278C2EB021201EB82018278114458
:101B6000194AD26942F0C052174BDA61174A12681B
:101B700042F48072154B1A6000BF154A128802F0B9
:101B80002002002AF9D0124A128842F01002104BAB
:101B90001A800A0C0E4B14331A801B1D19800C4A34
:101BA000128822F010020A4B1A8000BF084A1288DD
:101BB00002F02002002AF9D0044A126822F480724E
:101BC000024B1A6070470000001002400070004095
:101BD000042800400848006820F00C00064908600E
:101BE0000846006840F0040008600846006820F0DD
:101BF0000300086070470000040C01400B48806936
:101C000040F00800094988610948006820F0040094
:101C1000074908600846006840F008000860084668
:101C2000006840F0030008607047000000100240A8
:101C3000040C014010B500F001F810BD0CB50020F7
:101C4000019000903348006840F4803031490860CA
:101C500000BF3048006800F4003000900198401C3C
:101C60000190009818B90198B0F5A06FF1D12948FA
:101C7000006800F4003010B10120009001E0002065
:101C800000900098012843D12348006840F01000DC
:101C9000214908600846006820F0030008600846F3
:101CA000006840F0020008601A484068194948601E
:101CB0000846406848600846406840F480604860D4
:101CC0000846406820F47C1048600846406840F4AC
:101CD000E81048600846006840F08070086000BF67
:101CE0000C48006800F000700028F9D009484068EE
:101CF00020F00300074948600846406840F00200B1
:101D0000486000BF0348406800F00C000828F9D183
:101D10000CBD000000100240002002400248006894
:101D2000401C014908607047D400002010B51348DA
:101D3000006840F0010011490860084640681049F9
:101D400008400E494860084600680E4908400B49A3
:101D500008600846006820F4802008600846406853
:101D600020F4FE0048604FF41F008860FFF762FF18
:101D70004FF000600449086010BD000000100240F0
:101D80000000FFF8FFFFF6FE08ED00E00E480088B7
:101D900000F0200078B10C48008820F020000A49AB
:101DA0000880091D0988CAB208490868411C074B08
:101DB000196007490A5405480068B0F5806F02D3DE
:101DC000002002490860704700380140B40000203C
:101DD000EC0000200548008800F0200028B10348EE
:101DE000008820F02000014908807047004400402E
:101DF000490050EAC12018BF04204A0D18BF40F026
:101E0000010040F2FF72B2EB515F08BF40F00200E8
:101E1000012808BF0520704730380A2801D2012068
:101E200070470020704700000F4909880F4A118051
:101E3000121D108000210D4A121F118001210B4A32
:101E4000283A118000BF09491839098801F00101B9
:101E50000029F8D005491839098821F00101034A01
:101E6000183A11807047000088000020282C01409B
:101E70000A4800684FF47A71B0FBF1F00849086035
:101E8000064800680749B0FBF1F0074908600748B9
:101E9000806940F40060054988617047D8000020DF
:101EA0008800002040420F008C00002000100240FB
:101EB0000E4909880E4A1180111D08800021121F49
:101EC000118001210A4A283A118000BF08491839B7
:101ED000098801F001010029F8D00549183909885D
:101EE00021F00101024A183A118070478C0000204D
:101EF000282C014010B5002400F03CFD04463CB104
:101F0000002000F001FA08B1012010BD0020FCE71C
:101F10000020FAE710B54FF480610348FEF724FB78
:101F200000200249086010BDEC000020B400002031
:101F300070B504460D460026012D3DD1284600F01F
:101F4000C9F900287ED04DA1524801F04CF9FFF7A5
:101F5000E1FF51A1514801F01FF951494F4801F0EB
:101F60001BF950A14D4801F017F94C48216801F0C8
:101F700013F94DA1494801F00FF9606878B14BA100
:101F8000464801F009F948A1444801F005F94348E1
:101F9000616801F001F944A1404801F0FDF844A155
:101FA0003E4801F0F9F847F230524249424800F009
:101FB00000F90646304670BD022D4FD1284600F08C
:101FC00089F9002858D03DA1324801F0E5F8FFF723
:101FD000A1FF31A1314801F0DFF83F492F4801F05E
:101FE000DBF830A12D4801F0D7F82C48216801F02A
:101FF000D3F82DA1294801F0CFF8606878B12BA162
:10200000264801F0C9F828A1244801F0C5F8234862
:10201000616801F0C1F824A1204801F0BDF823A1B6
:102020001E4801F0B9F839211C4801F0D4F81FA16D
:102030001A4801F0B1F83421184801F0CCF81CA17D
:10204000164800E018E001F0A7F847F230521949AD
:10205000194800F0AEF806463046ACE7032D0BD128
:10206000284600F037F938B11CA10A4801F094F86D
:10207000FFF750FF01209EE700209CE74D6F64654D
:102080002073657420746F2073746174696F6E0DB2
:102090000A000000004400404154000000380140A4
:1020A000193700083D220000220000002C0000002B
:1020B0000D0A0000C5360008B83600084D6F64658B
:1020C0002073657420746F2061636365737320707F
:1020D0006F696E740D0A00002E3700084D6F64653D
:1020E0002073657420746F2061636365737320705F
:1020F0006F696E7420616E642073746174696F6EB1
:102100000D0A00001CB50446224607A16846FEF7EA
:10211000CBF86A460121054800F0AEF842F2107192
:10212000034800F02FF81CBD25640000EC360008C1
:10213000B836000810B50024FFF7ECFE08A10E48E1
:1021400001F051F8002202210C4800F095F842F20B
:1021500010710B4800F016F80446204610BD000030
:10216000646973636F6E6E65637420657370383273
:1021700036360D0A000000000044004027370008F2
:10218000B836000870B505460C4600F009FE064654
:1021900008E000F033F828B1284600F039F808B11B
:1021A000012070BD00F0FCFD31198842F1D3002000
:1021B000F7E72DE9F04107460C461546002600F0EA
:1021C000EFFD804611E000F019F870B1384600F0DC
:1021D0001FF8064616B10120BDE8F081204600F048
:1021E00017F806460EB10020F6E700F0D9FD08EB1F
:1021F00005018842E7D30020EEE7000003480068AD
:1022000008B1012070470020FCE70000B400002066
:102210002DE9F04104460025104800F0F1FE064685
:10222000B6F5806F09DA21460C48FEF748F910B17F
:102230000120BDE8F0810020FBE7204600F0E0FE31
:10224000074607A10B4800F0A7FF002500E06D1C22
:10225000B5F5806FFBDB00BF0020EAE7EC00002053
:102260004552524F522046524F4D205345525645EB
:10227000520900000044004070B505460C46164661
:10228000FFF748FE0EA10F4800F086FF29460D48D3
:1022900000F082FF24B90CA10A4800F07DFF09E09C
:1022A000012C07D109A1074800F076FF3146054807
:1022B00000F072FF06A1034800F06EFF70BD000041
:1022C00041540000003801403F0000003D00000084
:1022D0000D0A000038B5044600200090224607A1F0
:1022E0006846FDF7E1FF6A4601210548FFF7C4FF94
:1022F00042F210710348FFF745FF38BD2564000026
:1023000011370008B836000838B50446002500200B
:102310000090002C01DD312000E030208DF800001D
:102320006A4601210548FFF7A7FF42F210710448F1
:10233000FFF728FF0546284638BD0000763700081D
:10234000B836000810B50024002202210548FFF726
:1023500093FF42F210710448FFF714FF0446204631
:1023600010BD000065370008B836000870B5044697
:102370000025FFF7CFFD20A1204800F00DFF2049E8
:102380001E4800F009FF1FA11C4800F005FF207A3D
:1023900020B91DA1194800F0FFFE06E0207A0128AF
:1023A00003D11BA1154800F0F7FE1BA1134800F054
:1023B000F3FE1248216800F0EFFE14A10F4800F070
:1023C000EBFE0E48616800F0E7FE14A10B4800F038
:1023D000E3FE41F2883212491248FFF7EAFE054651
:1023E00045B911A0FFF714FF05460DB1012070BDDE
:1023F0000020FCE70120FAE74154000000380140CA
:10240000523700083D00000022544350222C0000A7
:1024100022554450222C0000220000000D0A00002A
:10242000BD360008B8360008414C524541445900B9
:102430002DE9FC4105460C464FF0000800262F46CA
:10244000B4F5006F02DD0020BDE8FC81224622A128
:102450006846FDF729FF6A4601212048FFF70CFF77
:1024600042F210721E491F48FFF7A3FE8046B8F1E2
:10247000000F2BD0FFF74EFD002613E01A4800880E
:1024800020F04000184908803978174800F0A3FE72
:1024900000BF1548008800F040000028F9D07F1CDC
:1024A000701CC6B2A642E9DB42F210720F4910A0BE
:1024B000FFF77FFE28B110A1104800F06DFE01204B
:1024C000C2E70FA10D4800F067FE03E010A10B4822
:1024D00000F062FE0020B7E7256400005C370008CA
:1024E000BD360008B836000800380140C53600087F
:1024F00053454E44204F4B006F6B09000044004091
:1025000073656E64696E67206572726F7209000090
:1025100073656E64206661696C0900002DE9F05FE7
:1025200081460E4614464FF0000A002503E04EA1F6
:10253000544800F031FE4846FFF718FF0028F6D057
:1025400051A1504800F028FE564800F019F9002823
:102550007DD05448007803287BD13046FDF7E5FF55
:10256000C7B22079C119207B084400F0FF0840461B
:10257000FDF744FE834658462168FDF7B2FF3A4610
:1025800031465846FDF789FF227B5846A168FDF782
:1025900084FF41465846FFF74BFF5846FDF75DFE66
:1025A00002251CE004EBC5010879FDF727FE8246F1
:1025B00054F835105046FDF794FF04EBC50001793F
:1025C0005046FFF735FF18B15046FDF746FE04E0D0
:1025D00035A12C4800F0E0FD03E0681CC5B2062DD3
:1025E000E0DB00BF062D12D132A1264800F0D4FD59
:1025F000FFF7A8FE30B133A1224800F0CDFD012045
:10260000BDE8F09F36A11F4800F0C6FD1EE0504611
:10261000FDF723FEFFF77EFCFFF76CFC18B13AA133
:10262000184800F0E0FD07E03BA1164800F0B4FDBB
:1026300041F28830FFF7F8FB01213B48FFF778FCB7
:102640000028F1D039A10F4800F0A6FD0AE005E00E
:10265000FFE73BA10B4800F09FFD03E041A10948C3
:1026600000F09AFD0020CBE777616974696E6720FE
:10267000666F7220636F6E6E656374696F6E2E2E67
:102680002E0D0A000044004074637020636F6E6E6C
:10269000656374696F6E206973206F70656E0D0AD3
:1026A00000000000B80000200D0A6572726F720D04
:1026B0000A0000000D0A7061636B65742073656E1B
:1026C000740D0A0074637020636F6E6E65637469C5
:1026D0006F6E20697320636C6F7365640D0A000070
:1026E000657272726F72202D2074637020636F6E3A
:1026F0006E656374696F6E2069736E277420636CF6
:102700006F7365640D0A0000696E697420737563E8
:10271000636573730D0A00006E6F20636F6E6E65E4
:102720006374696F6E0D0A00A0000020636F6E6E07
:1027300065637420737563636573730D0A0000002D
:10274000455350383236362053544154555320495E
:10275000534E275420434F4E4E45435445440D0A93
:10276000000000004553503832363620535441544F
:1027700055532049532046414C53450D0A00000053
:102780002DE9F04186B005464FF0000800260027ED
:10279000002202216D48FFF76FFD42F210716C4874
:1027A000FFF7F0FC8046B8F1000F73D069A16B48C9
:1027B000FDF785FE0446002C6DD0E41D06E014F8FC
:1027C000012B3046711CCEB201A90A5420780D2885
:1027D000F5D1002001A9885501A8FDF751FE074653
:1027E000022F06D0032F07D0042F08D0052F0CD1BD
:1027F00008E00220287008E00320287005E004208B
:10280000287002E00520287000BF00BF142101A835
:10281000FDF7CCFE002652A15048FDF750FE0446BD
:10282000002C72D00B3406E022783046711CCEB2F8
:1028300001A90A54641C20782C28F5D1002001A994
:10284000885501A8FDF71CFE0746AF70142101A8AA
:10285000FDF7ACFE0026A41C06E014F8012B304660
:10286000711CCEB201A90A5420782228F5D100208B
:1028700001A988553DA101A8FDF7C0FE10B90021AE
:10288000E9700BE03AA101A8FDF7B8FE20B90121DB
:10289000E97003E058E055E00221E970142101A835
:1028A000FDF784FE00260027E41C06E014F8012B47
:1028B0003146701CC6B2281D425420782228F5D11A
:1028C000002001A98855142101A8FDF76FFE0026FC
:1028D0000027A41C06E022783046711CCEB201A964
:1028E0000A54641C20782C28F5D1002001A98855B1
:1028F00001A8FDF7C5FD0746AF82142101A8FDF729
:1029000055FE00260027641C07E019E022783046B7
:10291000711CCEB201A90A54641C20780D28F5D18F
:1029200001A8FDF7ADFD074617B90021297603E0A0
:10293000012F01D101212976012006B0BDE8F081E7
:102940000120FAE70020F8E70020F6E74737000803
:10295000B83600085354415455533A00EC00002057
:102960002B4349505354415455533A00544350005B
:102970005544500010B5FFF7CDFA09A10C4800F0FE
:1029800032FC002202210B48FFF776FC42F2107164
:102990000948FFF7F7FB08B1012010BD0020FCE754
:1029A0006573703832363620746573740D0A000012
:1029B00000440040E1360008B836000810B51A4857
:1029C000006840F40030184908601748143800685F
:1029D00040F40030144914390860081D006820F4E0
:1029E0000030091D0860081D006840F40030091D12
:1029F0000860081D006820F40030091D08602920C7
:102A00000121002807DA0A07140E084A00F00F0314
:102A10001B1FD45403E00A07130E054A135400BFCA
:102A20002920FEF720FF10BD1404014018ED00E03E
:102A300000E400E00C48806940F008000A49886121
:102A40000A48006820F00C00084908600846006841
:102A500040F00100086005481030006840F00100B7
:102A6000024910310860704700100240000C01401C
:102A700010B5FEF703FF40B91248FEF7B9FF40B9A1
:102A800011A1184800F0AFFB03E017A1154800F0B2
:102A9000AAFB1D48006840F480301B4908600846C6
:102AA000006840F00100086003E018A10D4800F044
:102AB0009AFBFFF71FFA0028F7D01CA1094800F085
:102AC00092FB10BD24000020647331386232302044
:102AD0006661696C6564207265616420524F4D0DBA
:102AE0000A00000000440040647331386232302034
:102AF0006661696C656420696E697469616C697A84
:102B00006174696F6E0D0A00100C014065737038B6
:102B1000323636206661696C656420696E69746955
:102B2000616C697A6174696F6E0D0A006573703843
:102B3000323636207375636365737366756C20690E
:102B40006E697469616C697A6174696F6E0D0A00EF
:102B50000848806940F010000649886106484068CE
:102B600020F44000044948600846406840F4801062
:102B700048607047001002400010014000F016F954
:102B800000F072F90C201A49087000204870887013
:102B90001849087001204870002088701448FEF71A
:102BA000D3FF1448FEF766FF00F03AFA00F096FAF9
:102BB000FFF7CEFFFFF73EFFFFF75AF9FFF758FF89
:102BC000FFF7FCFE00F030F803E00BA1114800F025
:102BD0000AFB0020FFF796FA0028F6D00EA10D4858
:102BE00000F001FB00F0E8F930BF00BFFEE7000095
:102BF00036000020390000206573703832363620E8
:102C00006572726F72206465657020736C656570A3
:102C10000D0A0000004400407374616E6462792004
:102C20006D6F64650D0A000070B5FEF727FE002881
:102C300057D12C48FEF758FE2B490860084600681B
:102C400000F014FB044622460B4628A12948FDF754
:102C50002BFB07E028A12C4800F09EFA4FF47A7075
:102C6000FFF7E2F801212948FFF762F90028F1D0C7
:102C70002748FFF785FD00282FD025480078052834
:102C800004D124A1204800F087FA23E020480078EE
:102C9000032809D126A11C4800F07EFA2B4A1549C9
:102CA0002B48FFF73BFC15E019480078042804D1B5
:102CB00028A1154800F070FA0CE0154800780228A9
:102CC00008D12CA1104800F067FA204A0949204891
:102CD000FFF724FCFFF72EFA03E02CA10A4800F0CE
:102CE0005BFA70BD240000202000002025302E312A
:102CF000660000002C0000206E6F20636F6E6E6512
:102D00006374696F6E0D0A00004400400C000020DF
:102D10003C0000206573703832363620737461745D
:102D20007573206E6F2077692D66690D0A000000AB
:102D3000657370383236362073746174757320632E
:102D40006F6E6E65637465640D0A000058000020A4
:102D50000000002065737038323636207374617459
:102D6000757320646973636F6E6E65637465640D5B
:102D70000A0000006573703832363620737461744F
:102D8000757320676F742049500D0A006572726F69
:102D90007220764D656173757265720D0A000000D0
:102DA0000148006870470000D40000202C480068EB
:102DB00040F480302A49086000BF2948006800F4C8
:102DC00000300028F9D013202649086024484068C4
:102DD000234948600846406840F4A06048600846BF
:102DE000406840F4205048600846406820F4701065
:102DF00048600846406820F48030486008464068D3
:102E000020F4003048600846406840F48030486054
:102E10000846406848600846406840F4E010486052
:102E20000846006840F08070086000BF0C480068E9
:102E300000F000700028F9D00948406820F0030035
:102E4000074948600846406840F00200486000BFFB
:102E50000348406800F00C000828F9D170470000D2
:102E600000100240002002404F48C06940F0C050AE
:102E70004D49C8614D48006840F480704B49086076
:102E80004948006A00F40040B0F5004F7DD0464844
:102E9000006A40F48030444908620846006A20F421
:102EA000803008620846006A40F00100086200BFF6
:102EB0003D48006A00F002000028F9D03A48006A54
:102EC00020F44070384908620846006A40F4807077
:102ED00008620846006A40F40040086234480088EE
:102EE00040F003003249088000BF3248008800F0FB
:102EF00020000028F9D02F48008840F010002D490C
:102F0000088000BF2B48008800F020000028F9D07E
:102F100047F6FF702749083108802548008840F0AF
:102F200080002349088000BF2248008800F020006C
:102F30000028F9D000201F49091D088000BF1D4846
:102F4000008800F020000028F9D0002019491C3129
:102F5000088000BF1748008800F020000028F9D042
:102F600000201449203108801248008820F0100009
:102F700010490880084600884FF6F77108400D494F
:102F8000088000BF0B48008800E00BE000F008005C
:102F90000828F7D10548006820F4807003490860CC
:102FA000012070470020FCE7001002400070004044
:102FB0002C6C0040042800400E48C06940F080504E
:102FC0000C49C8610C48006820F001000A490860FB
:102FD0000846006840F0020008600848006840F0B9
:102FE0000400064908600448006840F004000249F3
:102FF00008607047001002400070004010ED00E0D3
:1030000001460022002001E0521C401C0B5C002BFA
:10301000FAD1431CCB5C002BF6D110467047000060
:1030200010B52B48806940F48040294988610846E2
:10303000806940F0040088610846806940F0010022
:1030400088612448006820F0C000224908600846D2
:10305000006840F0800008600846006840F01000FA
:1030600008600846006820F4406008600846006870
:1030700040F4806008600846006820F480700860B2
:103080009C2015490880081D008840F40050091D47
:1030900008800846008840F008000880084600883C
:1030A00040F0040008800846008840F020000880B6
:1030B0000846008820F480500880081D008820F40D
:1030C0004050091D08802520FEF7C2FB10BD0000FE
:1030D00000100240040801400838014010B52B4898
:1030E000C06940F400302949C8610846806940F051
:1030F000040088610846806940F001008861244826
:10310000006820F44060224908600846006840F4E6
:10311000006008600846006840F480700860084657
:10312000006820F4404008600846006840F4804091
:1031300008600846006820F4805008609C2015490B
:103140000880081D008840F40050091D08800846CA
:10315000008840F0080008800846008840F004001D
:1031600008800846008840F0200008800846008853
:1031700020F480500880081D008820F44050091D6C
:1031800008802620FEF764FB10BD000000100240FE
:1031900000080140084400402DE9F04104460D4676
:1031A0002846FDF7C2F987B2002610E0208820F0FB
:1031B000400020802978204600F00DF800BF2088CC
:1031C00000F040000028FAD06D1C701C86B2BE4290
:1031D000ECDBBDE8F08100BF028802F08002002A2B
:1031E000FAD08180704730B505460B46002406E0D2
:1031F0002046621CD4B2195C2846FFF7ECFF185D2C
:103200000028F5D130BD000010B500290AD008789B
:10321000002807D005487844FDF7F0F9002801D0D0
:10322000002010BD0248784410BD00005A0700007D
:103230005207000010B500290AD00878002807D0EE
:1032400005487844FDF7DAF9002801D0002010BDC8
:103250000248784410BD00004A0700004207000001
:103260000808A0F500114FEA3101704743004FEA0A
:10327000D30C4FEA3C0C43401FBF40070CF1605198
:1032800013F0FE4F70471CF0006F03D100200CF0CC
:10329000004170470CF0004343EA507010B540EA1B
:1032A000CC0000F046F900BF000000924FEA000198
:1032B000FFF7D6BF4FF000414FF00000A1F500210D
:1032C0007047000090EA010F48BF81F0004100F113
:1032D0008281421A3CBF801A89184FEAD0524FF0BF
:1032E0007F4C1CEA410FA2EBD15318BF9CEA026F3E
:1032F00000F03B804FF0004C4CEA00204CEA0121EA
:1033000021FA03FC10EB0C0C1ED202F1FF325FEA33
:103310001C2040EBC25038BF70471CF07F0F4FEAB3
:10332000400C18BFBCF17F4F38BF7047C3F120037A
:10333000994008BF20F00100BCF17F4F38BF7047B3
:10334000A0F1C04000F03BB94FEA3C00000A40EB5E
:10335000C25028BF1CF0FF0F4FEA400CE6D018BF48
:10336000BCF17F4F38BF7047EAE79CEA026F05D097
:1033700010EA5C0F08BF00F00040704710B500F085
:10338000D8F800BF64FBBE3E4FF47F0C1CEAD0129D
:103390001EBF1CEAD11392EA0C0F93EA0C0F00F047
:1033A000858090EA010F48BF42F4807240F4000C1F
:1033B00041F400002CF07F4120F07F4000B58142B5
:1033C000A2EB03020FF2081CACEB504EC0F1000060
:1033D0009EF800E04FEA4E0E00FB0EFC38BF49009D
:1033E0004FEA2C1C02F5FA020CFB0EF34FEACE1E3C
:1033F0004FEA112C4FEAC1210EEB635E42EB2242F1
:103400000EFB0CFC4FEA1C5300FB03114FEA112C7E
:103410004FEA01310EFB0CFC4FEADC4C00FB0C11B7
:10342000C14228BF09184CEB03335DF804EB10EBE5
:10343000410143EBC250B2F57C0F38BF704729D52C
:1034400012F0F00F1CBF00F1C04000F000407047C8
:10345000008182838485868788898B8C8D8E8F916D
:103460009293959697999A9C9D9FA0A2A3A5A7A891
:10347000AAACAEB0B2B3B5B7B9BCBEC0C2C5C7C9BD
:10348000CCCED1D4D7D9DCDFE2E6E9ECF0F3F7FA21
:10349000FE0000004FEA400C0CF1807CBCF17E4F36
:1034A00028BF7047B0F1C04000F089B890EA010F22
:1034B0000CEAD11348BF42F48072624538BF6345BD
:1034C00007D213F47F0F16D080EA010000F000400D
:1034D000704710B500F02DF8097EFC3E00F005B8ED
:1034E00080EA010000F00040704780EA010000F02F
:1034F000004000F064B812F47F0F04BF0248704728
:1035000080EA010000F05BB80000C07FB0FA80F3F1
:1035100010FA03F2C3F19D030AD0D90501EB122082
:10352000530638BF704700F1010008BF20F00100CA
:1035300070470EF1020E2EF0030E5EF8044B24428B
:1035400004D44FEA4102B2F17F4F11D84FEA400351
:10355000B3F17F4F0CD80ED14FEAD07CB2F17F4F40
:103560000CEB4C0C0CF1020C08BF4CEBD17C04E0D2
:103570004FF0080C01E04FEAD17C0CEB4C0324FA2D
:1035800003F404F00704B4F1040C06D20EEB840C2F
:10359000BDE810404CF0010C6047DFE80CF0070874
:1035A00002024FF00040A0F5800010BD0846420026
:1035B00018BFD2F1807288BF00F0004010BDFF211B
:1035C00041EAD050C005704790EA010F48BF81F032
:1035D00000413FF57EAE421A04D882F00042A0EBD3
:1035E000020011444FEAD0524FF07F4C1CEA410FC9
:1035F000A2EBD15318BF9CEA026F4AD04FF0004CA7
:103600004CEA00204CEA012121FA03FCB0EB0C0C3F
:103610000FD412F0FE0F36D05FEA4C001DD5001219
:1036200040EBC25038BF70471CF03F0F18BF7047C7
:103630000BE0A2F101025FEA1C2040EBC25038BF50
:1036400070471CF07F0F18BF7047C3F120039940EB
:1036500014BF401E20F00100704780084FEA12237B
:1036600008BF7047B0FA80FCA2EB0C02CCF1280C2A
:1036700060FA0CF093EA122F04BF00EBC2507047BF
:103680004FEAC3707047130A5FEADC1008BF704747
:10369000F6E79CEA026F04D010EA5C0F08BF002036
:1036A000704710B5FFF745FF40DFF63E81F0004060
:1036B0007047FDF76FB900004F4B0D0A004552529D
:1036C0004F520D0A004641494C0072656164790011
:1036D0002B4950442C002B434950535441545553CB
:1036E00000002B525354002B474D52002B47534C94
:1036F00050002B534C454550002B57414B455550DE
:103700004750494F004531004530002B5541525438
:10371000002B43574D4F4445002B43574A4150001F
:103720002B43574C4150002B4357514150002B43E2
:1037300057534150002B43574C4946002B434950A7
:103740005354414D4143002B434950535441545528
:1037500053002B4349505354415254002B4349507A
:1037600053454E44002B434950434C4F5345002B87
:103770004349465352002B4349504D5558002B4363
:103780004950534552564552002B4349504D4F44E2
:1037900045002B50494E47005354415455533A323B
:1037A000005354415455533A3300535441545553E4
:1037B0003A34005354415455533A35000500000043
:1037C00000000000000000000000000000000000F9
:1037D00000000000000004000008000000000000DD
:1037E000000200010000100002400000000000A0E4
:1037F0000000000005400000000000C800000000BC
:103800000C4000000000409C000000001940000037
:103810000020BCBE0000000034400000BFC91B8E69
:1038200000000004B5400000504BCFD06607E2CF47
:10383000010000006C4100003E8251AADFEEA73477
:1038400001000000D9420000DCB5A0E23A301F9729
:10385000FFFFFFFFB4450000FD25A0C8E9A3C14F4D
:10386000FFFFFFFFFF3F000000000080000000009E
:10387000FF3F0000000000800000000055736572EB
:103880002D4167656E743A204D6F7A696C6C612FBB
:10389000342E302028636F6D70617469626C653BF3
:1038A0002065737038323636204C75613B2057697D
:1038B0006E646F7773204E5420352E31290D0A0027
:1038C0004163636570743A202A2F2A0D0A000000B4
:1038D00020485454502F312E310D0A00486F737414
:1038E0003A206170692E7468696E67737065616BE8
:1038F0002E636F6D0D0A00007061737330303030CD
:1039000000000000383000003138342E3130362EBF
:103910003135332E31343900474554202F757064CA
:103920006174653F6170695F6B65793D5548464CD0
:10393000315230344F43313259383132266669655D
:103940006C64313D000000004D795F5749464900E5
:103950009C3A000800000020EC000000280100084C
:10396000883B0008EC000020E40A00004401000845
:103970001C00000043000000F8FFFFFF0C000000E7
:103980000E0000000F0000002E00000010010000DB
:1039900043000000F8FFFFFF00404040404040402F
:1039A0004040414141414140404040404040404012
:1039B00040404040404040404005020202020202B6
:1039C0000202020202020202022020202020202005
:1039D0002020200202020202020290909090909019
:1039E00010101010101010101010101010101010D7
:1039F000101010100202020202028888888888884B
:103A00000808080808080808080808080808080836
:103A1000080808080202020240000000000000003E
:103A20000000000000000000000000000000000096
:103A30000000000000000000000000000000000086
:103A40000000000000000000000000000000000076
:103A50000000000000000000000000000000000066
:103A60000000000000000000000000000000000056
:103A70000000000000000000000000000000000046
:103A80000000000000000000000000000000000036
:103A900000000000000000000000000008390008DD
:103AA000043900080000000048390008F838000810
:103AB0000839000804390008000000000000000078
:103AC00000000000000000000000000000000000F6
:103AD00000000000000000000500000000000000E1
:103AE00000000000000000000000000000000000D6
:103AF00000000000183900082C000000D038000831
:103B00000B000000DC3800081A000000C038000874
:103B10000D0000007C38000843000000F438000865
:103B20000200000000000000000000000000000093
:103B3000083900080439000800000000483900086E
:103B4000F8380008083900080439000800000000AF
:103B50000000000005000000000000000000000060
:103B60000000000000000000000000000000000055
:103B70000000000000A24A04000000000000000055
:083B8000010203040607080915
:04000005080001BD31
:00000001FF
