:020000040800F2
:10000000900A0020B9010008C1010008C3010008DE
:10001000C5010008C7010008C90100080000000070
:10002000000000000000000000000000CB010008FC
:10003000CD01000800000000CF010008210F0008DA
:10004000D3010008D3010008D3010008D301000840
:10005000D3010008D3010008D3010008D301000830
:10006000D3010008D3010008D3010008D301000820
:10007000D3010008D3010008D3010008D301000810
:10008000D3010008D3010008D3010008D301000800
:10009000D3010008D3010008D3010008D3010008F0
:1000A000D3010008D3010008D3010008D3010008E0
:1000B000910F0008B10F0008D3010008D301000818
:1000C000D3010008D3010008D3010008D3010008C0
:1000D000D3010008F50F00083D100008D301000807
:1000E000D3010008D3010008D301000800F002F892
:1000F00000F052F80AA090E8000C82448344AAF170
:100100000107DA4501D100F047F8AFF2090EBAE86D
:100110000F0013F0010F18BFFB1A43F0010318473B
:10012000B4220000D4220000103A24BF78C878C15D
:10013000FAD8520724BF30C830C144BF04680C60ED
:10014000704700000023002400250026103A28BF35
:1001500078C1FBD8520728BF30C148BF0B60704739
:10016000642900F00381782900F03C81732900F0B4
:100170005884002070471FB59DE8030000F092FBF3
:1001800000F02EFD04000020002102F059F8401C70
:1001900060601FBD10B510BD00F0FDFC1146FFF7FB
:1001A000EAFF01F0EFFD00F02DFD03B4FFF7F2FFD1
:1001B00003BC00F05DFD0000094880470948004786
:1001C000FEE7FEE7FEE7FEE7FEE7FEE7FEE7FEE707
:1001D000FEE7FEE704480549054A064B7047000064
:1001E000310F0008ED00000890040020900A002064
:1001F000900600209006002070B5064600F032FB05
:10020000056806F10B0020F00704B4429CBF0020F3
:1002100070BD2B466A68BAB11068A04210D304F1D1
:10022000080188423CBF5068586007D351681019D4
:1002300041601168091B016058601460101D70BD99
:1002400013465268002AE7D12146284600F016FBE3
:100250000028DED170BD70B50446051F00F002FB1A
:100260000068002C14BF446870BD002C18BFAC425D
:100270003CBF20466468F8D301680A18AA4218BF38
:10028000456003D12A680546114401602868411978
:10029000A1421CBF6C6070BD616869602168084440
:1002A000286070BD0FB41CB5074B06AA7B44694695
:1002B0000090059800F08BFB0020694600F09AFB47
:1002C0001CBC5DF814FB00004507000070B5044637
:1002D00085690068C10601D5302600E02026C007E8
:1002E00007D070BDD4E9012130469047206A401CF8
:1002F00020626D1EF6D570BD70B504468569007824
:10030000C00707D170BDD4E9012120209047206AA1
:10031000401C20626D1EF6D570BD70B50C460546BA
:10032000012A05D02878800600D5EA69002302E07A
:10033000012305E05B1C934202D2E05C0028F9D166
:10034000A869E618C01AA861286A184428622846D5
:10035000FFF7BCFF04E0D5E9012114F8010B904739
:10036000B442F8D32846FFF7C7FF70BD2DE9F0412E
:100370000646002410687529314616A510D0AFF343
:100380000080002802DA404213A507E031688A079E
:1003900001D512A502E0490704D511A5012401E009
:1003A000AFF3008000210A2206F1240709E0B0FB28
:1003B000F2FCB0FBF2F302FB1C003030785418461C
:1003C000491C0028F3D123462A463046BDE8F041B7
:1003D00000F09EBA000000002D0000002B0000007D
:1003E0002000000070B504460D4621461068AFF3AA
:1003F00000802188090502D50F4A7A4402E00E4A9E
:100400007A440E32002104F1240305E000F00F06C7
:100410000009965D5E54491C0028F7D1207800231E
:10042000000704D5702D02D009B1022311322046F5
:10043000BDE8704000F06CBA741F00002DE9F05F59
:10044000894604464FF0000ADFF824B1FB44C0F8A7
:1004500020A02046E168884700287DD0252806D0C6
:10046000D4E901219047206A401C2062F1E7002571
:100470005F462046E16888472028064607DB312E84
:1004800005D2B81910F8200C08B10543F1E7A80708
:1004900001D525F00405C4F81CA00027C4F818A055
:1004A0002A2E09D0304600F0D7FD38B304EB870878
:1004B000303EC8F8186019E059F8041B204604EBD8
:1004C00087029161E1688847012F064618D1E069EB
:1004D000002820DA25F020051DE0D8F8180000EBF0
:1004E000800006EB40003038C8F818002046E1686C
:1004F0008847064600F0B0FD0028EED1012F0AD053
:100500002E2E08D12046E16888477F1C0646022F20
:1005100045F02005C4DBA069002803DA404245F01D
:100520000105A061E80701D025F01005A6B1A6F1EC
:100530004100192802D8203645F400654A46314664
:10054000204625604D46FFF70BFE60B1012807D01D
:10055000ED1D25F0070000E007E000F1080978E74D
:1005600005F1040975E730467AE7206ABDE8F09F97
:100570004A1F000070B5064600F078F90468054689
:1005800030460A22002100F050FA2C6070BD10B5F0
:10059000431E13F8014F002CFBD105E011F8014B6D
:1005A000002C03F8014B03D0521EF7D20021197022
:1005B00010BD30B505460B462A4613F8014B12F81C
:1005C000010B08B1A042F8D01CB1002802D06D1C6C
:1005D000F1E7284630BD40EA0103024630B59B07EB
:1005E00010D14FF0013400E008C208C91D1B9D4323
:1005F00015EAC41FF8D013F0FF0102F8011B0DD05B
:100600001B0AF8E711F8013B002B02F8013B05D06B
:1006100011F8013B002B02F8013BF3D130BD10B5BE
:10062000431C02E010F8011B71B18107FAD14FF0B1
:10063000013202C88C1A8C4314EAC211F9D0C01AD4
:100640000A0603D0C01E10BDC01A10BD0A0401D096
:10065000801E10BD0902FCD0401E10BD032A40F2CE
:10066000308010F0030C00F0158011F8013BBCF154
:10067000020F624498BF11F801CB00F8013B38BF6C
:1006800011F8013BA2F1040298BF00F801CB38BF7A
:1006900000F8013B11F0030300F02580083AC0F098
:1006A000088051F8043B083A51F804CBA0E8081040
:1006B000F5E7121D5CBF51F8043B40F8043BAFF373
:1006C0000080D20724BF11F8013B11F801CB48BFCD
:1006D00011F8012B24BF00F8013B00F801CB48BF03
:1006E00000F8012B704710B5203AC0F00B80B1E83C
:1006F0001850203AA0E81850B1E81850A0E8185057
:10070000BFF4F5AF5FEA027C24BFB1E81850A0E85F
:10071000185044BF18C918C0BDE810405FEA827C79
:1007200024BF51F8043B40F8043B08BF7047D20790
:1007300028BF31F8023B48BF11F8012B28BF20F831
:10074000023B48BF00F8012B70474FF0000204291C
:10075000C0F0128010F0030C00F01B80CCF1040CF0
:10076000BCF1020F18BF00F8012BA8BF20F8022B24
:10077000A1EB0C0100F00DB85FEAC17C24BF00F8CA
:10078000012B00F8012B48BF00F8012B70474FF0F8
:10079000000200B5134694469646203922BFA0E8D1
:1007A0000C50A0E80C50B1F12001BFF4F7AF0907DD
:1007B00028BFA0E80C5048BF0CC05DF804EB8900CE
:1007C00028BF40F8042B08BF704748BF20F8022B11
:1007D00011F0804F18BF00F8012B70474FF0013C1B
:1007E00050F8042B51F8043B9A4221D1A2EB0C03A0
:1007F000934313EACC1317D150F8042B51F8043B60
:100800009A4215D1A2EB0C03934313EACC130BD1FC
:1008100050F8042B51F8043B9A4209D1A2EB0C0387
:10082000934313EACC13DBD04FF00000704700BFB6
:10083000D01A01BAB1FA81F101F0180122FA01F0DF
:10084000CB40C1F12001DBB2C0B2C01A2CFA01F3D7
:10085000D11A914311EAC311E6D17047704770472E
:100860007047000000487047380400200048704777
:1008700030040020704770477047704738B5044611
:100880000A4600206946AFF30080002808BF38BD43
:1008900002460099204600F00DF9012038BD0120E4
:1008A00000F071B9F8B5AFF30080054600200C46A2
:1008B000102000BF0646A819A0420DD9324669464D
:1008C0000020AFF30080070008BF00F05CF900983B
:1008D000A04218BF0546C419FFF7C4FF05600746CC
:1008E000F01D20F007004619284600F00AF8B4422F
:1008F00008BFF8BDA21B31463868BDE8F84000F0DB
:10090000D9B800210160C0E901107047102070477C
:100910002DE9F0470D4699469246044600F1240819
:100920000168880604D5E06921F01001216000E02B
:100930000120A84201DD471B00E00027A1697A19C8
:1009400002EB0900081AA0612078C00602D42046F4
:10095000FFF7BCFC002608E0D4E901211AF80600E4
:100960009047206A401C761C20624E45F4DB2078BC
:10097000C0060AD52046FFF7A9FC06E0D4E901210C
:1009800030209047206A401C2062381EA7F10107E2
:10099000F4DC07E0D4E9012118F805009047206A4B
:1009A000401C2062281EA5F10105F3DC2046FFF75C
:1009B000A3FC2078000602D50220BDE8F0870120C4
:1009C000FBE7000001694A1C02610878704700B526
:1009D0008FB0CDE901310021059105497944CDE978
:1009E000031011466846FFF729FD0FB000BD000057
:1009F000E5FFFFFF0A6802F8010B0A60704710B5B7
:100A0000436913B1AFF3008001E0FFF786FC0120DA
:100A100010BD127800F124010A7000224A700122F0
:100A2000EDE711684FF0FF32E9E72DE9F047914615
:100A30000F4680460446002614F8015B2DB100F0F5
:100A400031F80068405DC007F6D12B2D02D02D2D66
:100A500018D0641E4A463946204600F045F827B1B2
:100A60003968A14201D1C7F800804FF00204710536
:100A70000BD54042002803DDFFF7F8FE0460A00715
:100A8000BDE8F08746F48066E4E70028F8DAFFF76F
:100A9000EDFE04606FF00040F2E700000048704790
:100AA0003004002010B500F09BF8001D10BD00BF01
:100AB00091170000034640688C46002818BF884202
:100AC0003CBF03464068F8D318681844884207D0F2
:100AD0000CF1030020F00700001D411A521A0146D4
:100AE000081D0A60FFF7B7BB2DE9F05F8246154687
:100AF0008B4600270AF10104B9460078302801D05E
:100B00009DB113E014F8010B0127782803D0582871
:100B100001D045B10AE00DB1102D07D1002714F81E
:100B2000010B102502E0082500E00A250026B0464A
:100B30000EE005FB080005FB06F101271FFA80F80F
:100B400001EB1046B6F5803F00D3B94614F8010B0F
:100B5000294600F049F80028EBDABBF1000F05D078
:100B60000FB1641E00E05446CBF80040B9F1000F0D
:100B700006D0FFF77BFE02210160C81EBDE8F09F92
:100B800048EA0640FAE710B500F04AF8BDE8104020
:100B900000F041B870477546FFF780FFAE4605008C
:100BA0006946534620F00700854618B020B5FFF788
:100BB00011FBBDE820404FF000064FF000074FF05A
:100BC00000084FF0000B21F00701AC46ACE8C0096B
:100BD000ACE8C009ACE8C009ACE8C0098D46704774
:100BE00000487047500400203A2800D2303820F0E6
:100BF0002002412A01D3A2F13700884201D34FF0ED
:100C0000FF30704710B50446AFF300802046BDE8C2
:100C10001040FFF7CABA002801D000F029B8704789
:100C200010B5012805D0002103A000F027F801200D
:100C300010BD09A1F8E7000053494752544D454DF6
:100C40003A204F7574206F662068656170206D656D
:100C50006D6F7279000000003A2048656170206D68
:100C6000656D6F727920636F727275707465640060
:100C700001491820ABBEFEE72600020070B505460C
:100C80000C460A2000E06D1C00F011F835B1287800
:100C90000028F8D102E0641C00F009F814B12078B3
:100CA0000028F8D1BDE870400A20AFF3008008B5F5
:100CB00069468DF800000320ABBE08BD00F01F029E
:100CC000012191404209920002F1E022C2F8001194
:100CD000704700F01F02012191404209920002F189
:100CE000E022C2F80011704710B50F48006840F0CC
:100CF00080700D49086000F083F840F2E51000F0C4
:100D0000F5F900F069F8412000F0F0F906480838DC
:100D100000680020054908704FF4FA7000F0E6F909
:100D20000248007810BD0000100C01404400002073
:100D300070B50024002516E000F062F8022000F0F3
:100D4000D5F900F049F8042000F0D0F96410084803
:100D5000006800F4807008B144F080043E2000F088
:100D6000C5F9681CC5B2082DE6DB204670BD000041
:100D7000080C014070B50546FFF7B6FF332000F0C0
:100D80000BF8002404E0FFF7D3FF2855601CC4B221
:100D9000082CF8DB012070BD70B50446002517E073
:100DA00000F02EF8022000F0A1F904F0010010B1CB
:100DB00000F012F801E000F023F864103E2000F08B
:100DC00095F900F009F8022000F090F9681CC5B20E
:100DD000082DE5DB70BD00000848006820F00C001D
:100DE000064908600846006840F0040008600846AC
:100DF000006820F00300086070470000040C014008
:100E00000B48806940F0080009498861094800687A
:100E100020F00400074908600846006840F0080018
:100E200008600846006840F0030008607047000052
:100E300000100240040C014010B500F001F810BD94
:100E40000CB50020019000903348006840F48030D9
:100E50003149086000BF3048006800F4003000905D
:100E60000198401C0190009818B90198B0F5A06F46
:100E7000F1D12948006800F4003010B10120009041
:100E800001E0002000900098012843D12348006829
:100E900040F01000214908600846006820F0030077
:100EA00008600846006840F0020008601A48406880
:100EB000194948600846406848600846406840F460
:100EC000806048600846406820F47C10486008460E
:100ED000406840F4E81048600846006840F08070C0
:100EE000086000BF0C48006800F000700028F9D0CE
:100EF0000948406820F003000749486008464068F8
:100F000040F00200486000BF0348406800F00C0059
:100F10000828F9D10CBD000000100240002002405A
:100F200002480068401C014908607047C400002066
:100F300010B51348006840F00100114908600846E8
:100F40004068104908400E494860084600680E494C
:100F500008400B4908600846006820F480200860BB
:100F60000846406820F4FE0048604FF41F00886087
:100F7000FFF762FF4FF000600449086010BD0000F9
:100F8000001002400000FFF8FFFFF6FE08ED00E051
:100F90004FF08040008A00F0010038B14FF08040EF
:100FA000008A20F001004FF0804108827047000065
:100FB0000E48008800F00100B8B10C48008820F00D
:100FC00001000A4908800A48C06800F4005030B1A6
:100FD0000748006940F000500549086105E00448F1
:100FE000006940F400500249086170471004004055
:100FF000001001400E48008800F0200078B10C4835
:10100000008820F020000A490880091D0988CAB21A
:1010100008490868411C074B196007490A540548EC
:101020000068B0F5007F02D30020024908607047D5
:101030000038014048000020A40100200548008835
:1010400000F0200028B10348008820F0200001496A
:10105000088070470044004030380A2801D201203F
:1010600070470020704700000E4909880E4A118021
:10107000111D08800021121F118001210A4A283AFF
:10108000118000BF08491839098801F001010029C1
:10109000F8D005491839098821F00101024A183AA7
:1010A000118070473C000020282C01400A4800684D
:1010B0004FF47A71B0FBF1F0084908600648006807
:1010C0000749B0FBF1F0074908600748806940F420
:1010D0000060054988617047C80000203C0000207E
:1010E00040420F0040000020001002400E490988D5
:1010F0000E4A1180111D08800021121F118001214C
:101100000A4A283A118000BF08491839098801F0B5
:1011100001010029F8D005491839098821F0010199
:10112000024A183A1180704740000020282C0140E4
:1011300010B5002400BF00F07BF90028FBD000F0C0
:10114000F1FD04463CB1002000F018FA08B101207E
:1011500010BD0020FCE70020FAE7000010B54FF4B6
:1011600000710348FFF7F1FA00200249086010BD42
:10117000A40100204800002070B504460D4600265A
:10118000012D42D100BF00F053F90028FBD02846C2
:1011900000F0DAF900287CD051A1574801F03FF85F
:1011A000FFF7DCFF55A1564801F012F855495448A5
:1011B00001F00EF854A1524801F00AF85048216895
:1011C00001F006F851A14E4801F002F8606878B1CC
:1011D0004FA14B4800F0FCFF4CA1494800F0F8FF3C
:1011E0004748616800F0F4FF48A1454800F0F0FF6F
:1011F00048A1434800F0ECFF47F2305246494748C7
:1012000000F0F1F80646304670BD022D59D100BFFE
:1012100000F00EF90028FBD000BF00F0A5F8002870
:10122000FBD0284600F090F9002856D03CA1324867
:1012300000F0CEFFFFF792FF30A1314800F0C8FF69
:101240003E492F4800F0C4FF2FA12D4800F0C0FFF9
:101250002B48216800F0BCFF2CA1294800F0B8FF02
:10126000606878B12AA1264800F0B2FF27A124487F
:1012700000F0AEFF2248616800F0AAFF23A12048D9
:1012800000F0A6FF22A11E4800F0A2FF39211C4851
:1012900000E022E000F0BBFF1DA1194800F098FF1C
:1012A0003421174800F0B3FF1AA1154800F090FF51
:1012B00047F230521849194800F095F80646304672
:1012C000A2E7032D09D1284600F03EF928B11CA160
:1012D000094800F07DFFFFF741FF002094E7000080
:1012E0004D6F64652073657420746F20737461742E
:1012F000696F6E0D0A000000004400404154000078
:1013000000380140B42200083D2200002200000005
:101310002C0000000D0A0000792200086C22000851
:101320004D6F64652073657420746F20616363651D
:10133000737320706F696E740D0A0000C922000873
:101340004D6F64652073657420746F2061636365FD
:10135000737320706F696E7420616E6420737461A2
:1013600074696F6E0D0A000010B5FFF7F7FE09A152
:101370000E4800F054FF0024002202210C4800F027
:10138000B5F842F210710B4800F016F804462046FA
:1013900010BD0000446973636F6E6E656374204511
:1013A0005350383236360D0A000000000044004029
:1013B000C22200086C22000870B505460C4600F0F9
:1013C0009BFD064608E000F063F828B1284600F0CF
:1013D00069F808B1012070BD00F08EFD3119884216
:1013E000F1D30020F7E72DE9F04107460C461546FA
:1013F000002600F081FD804611E000F049F870B150
:10140000384600F04FF8064616B10120BDE8F081DD
:10141000204600F047F806460EB10020F6E700F03F
:101420006BFD08EB05018842E7D30020EEE70000E2
:1014300010B5FFF793FE0EA1114800F0F0FE002456
:10144000002202210F4800F051F842F210710E48BC
:10145000FFF7B2FF04464FF4FA70FFF705FE42F2C1
:1014600010710A48FFF7A8FF0446204610BD00008F
:10147000526573657420455350383236360D0A0074
:1014800000440040962200086C2200087E220008DA
:101490000348006808B1012070470020FCE7000005
:1014A000480000202DE9F041044600250E48FFF7D2
:1014B000B6F80646B6F5007F09DA21460A48FFF776
:1014C00078F810B10120BDE8F0810020FBE720464C
:1014D000FFF7A5F80746002500E06D1CB5F5007F75
:1014E000FBDB00BF0020EEE7A401002070B505463D
:1014F0000C461646FFF732FE0EA10F4800F068FEBC
:1015000029460D4800F064FE24B90CA10A4800F0F9
:101510005FFE09E0012C07D109A1074800F058FE41
:101520003146054800F054FE06A1034800F050FE85
:1015300070BD000041540000003801403F00000031
:101540003D0000000D0A000038B504460020009060
:10155000224607A16846FEF7A5FE6A460121054816
:10156000FFF7C4FF42F210710348FFF725FF38BDB3
:1015700025640000AC2200086C22000838B504463F
:10158000002500200090002C01DD312000E03020FB
:101590008DF800006A4601210548FFF7A7FF42F2D7
:1015A00010710448FFF708FF0546284638BD0000C3
:1015B000112300086C22000810B594B004461C22C8
:1015C0003E490DA8FFF78FF80DA800F0B1FA0028EA
:1015D0006DD09DF83400022803D139A13C4800F0B9
:1015E000F7FD9DF83400032803D13AA1384800F0F4
:1015F000EFFD9DF83400042803D13BA1344800F0EE
:10160000E7FD9DF83400052803D13DA1304800F0E6
:10161000DFFD9DF83400032849D19DF836203CA118
:101620006846FEF73FFE6946294800F0D1FD0DA847
:10163000C07820B937A1264800F0CAFD0CE00DA8FB
:10164000C078012804D135A1214800F0C1FD03E094
:1016500034A11F4800F0BCFD34216846FFF797F81D
:101660000EAA34A16846FEF71DFE6946184800F030
:10167000AFFD34216846FFF78AF80DA8828A24A1BD
:101680006846FEF70FFE6946114800F0A1FD0DA85F
:10169000007E20B928A10E4800F09AFD07E00DA8B1
:1016A000007E012803D127A1094800F091FD1A22EC
:1016B0000DA92046FEF7D2FF14B010BD5823000834
:1016C00053544154555320474F544950090000008A
:1016D0000044004053544154555320434F4E4E450F
:1016E0004354454409000000535441545553204489
:1016F0004953434F4E4E45435445440900000000B2
:10170000535441545553204E4F574946490D0A00F2
:101710002564090054435009000000005544500955
:10172000000000005459504520554E444546494E4E
:101730004544090025730900434C49454E540D0AA0
:10174000000000005345525645520D0A00000000AB
:1017500010B50024002202210548FFF7C7FE42F21F
:1017600010710448FFF728FE0446204610BD000013
:10177000002300086C22000870B504460025FFF71E
:10178000EDFC20A1204800F023FD20491E4800F078
:101790001FFD1FA11C4800F01BFD207A20B91DA1D0
:1017A000194800F015FD06E0207A012803D11BA19D
:1017B000154800F00DFD1BA1134800F009FD12486B
:1017C000216800F005FD14A10F4800F001FD0E484E
:1017D000616800F0FDFC14A10B4800F0F9FC41F237
:1017E000883212491248FFF7FEFD054645B911A09F
:1017F000FFF758FE05460DB1012070BD0020FCE743
:101800000120FAE74154000000380140ED220008B1
:101810003D00000022544350222C00002255445029
:10182000222C0000220000000D0A00007122000896
:101830006C220008414C5245414459002DE9FC41BD
:1018400005460C464FF0000800262F46B4F5006F01
:1018500002DD0020BDE8FC81224619A16846FEF7A2
:1018600021FD6A4601211748FFF740FE42F210723F
:1018700015491648FFF7B7FD8046B8F1000F1CD098
:10188000FFF76CFC002606E03978114800F0BFFC39
:101890007F1C701CC6B2A642F6DB0EA10F4800F0FA
:1018A00097FC42F210710EA0FFF786FD28B10EA141
:1018B0000A4800F08DFC0120CCE70020CAE70000B8
:1018C00025640000F7220008712200086C2200083D
:1018D000003801402053544152542000004400403D
:1018E00053454E44204F4B0053454E44204F4B0927
:1018F000000000002DE9F34F93B00C4603E05FA118
:10190000654800F065FC1398FFF736FF0028F6D015
:1019100062A1614800F05CFC05A8FFF74DFE1C22A7
:1019200005A90CA8FEF7DFFE9DF8300003287DD145
:10193000302261A107A8FEF7D6FE6BA207CA04AB4E
:1019400007C307A8FEF76BFEC0B2039004A8FEF71A
:1019500066FEC5B22046FEF762FEC6B2039830446A
:101960002844C7B26348FEF75AFE00F0FF086248F9
:10197000FEF755FE00F0FF096048FEF750FE00F04C
:10198000FF0A5F48FEF74BFE00F0FF0B00200290BD
:101990003846FEF731FC019007A90198FEF71BFEBF
:1019A000324621460198FEF7F2FD2A4604A9019825
:1019B000FEF7EDFD39460198FFF740FF0198FEF76D
:1019C0004AFC1420FFF750FB4046FEF715FC02903E
:1019D00048490298FEF7FFFD41460298FFF72EFFA7
:1019E0000298FEF738FC1420FFF73EFB4846FEF74E
:1019F00003FC029040490298FEF7EDFD494602982B
:101A0000FFF71CFF0298FEF726FC1420FFF72CFBC3
:101A10005046FEF7F1FB029038490298FEF7DBFDD5
:101A200051460298FFF70AFF029800E022E0FEF715
:101A300012FC1420FFF718FB5846FEF7DDFB02905E
:101A40002F490298FEF7C7FD59460298FFF7F6FEA8
:101A50000298FEF700FC1420FFF706FB29A10E48B0
:101A600000F0B6FBFFF774FE18B12AA10A4800F097
:101A7000AFFB00BF15B0BDE8F08F0000576169747F
:101A8000696E6720666F7220636F6E6E656374693E
:101A90006F6E2E2E2E0D0A000044004054637020FD
:101AA000636F6E6E656374696F6E206973206F700B
:101AB000656E0D0A00000000474554202F757064C4
:101AC0006174653F6170695F6B65793D5548464C4F
:101AD000315230344F4331325938313226666965DC
:101AE0006C64313D0000000020485454502F312ECA
:101AF000310D0A00520000206D0000207B00002004
:101B0000BF0000200D0A5061636B65742073656E21
:101B1000740D0A0054435020636F6E6E65637469E0
:101B20006F6E20697320636C6F7365640D0A00002B
:101B30002DE9F04186B005464FF00008002600224E
:101B400002216E48FFF7D2FC42F210716C48FFF799
:101B500033FC8046B8F1000F73D06AA16B48FEF7E2
:101B600028FD0446002C6DD0E41D06E014F8012B7E
:101B70003046711CCEB201A90A5420780D28F5D147
:101B8000002001A9885501A8FEF7F4FC0746022FA2
:101B900006D0032F07D0042F08D0052F0CD108E062
:101BA0000220287008E00320287005E00420287037
:101BB00002E00520287000BF00BF142101A8FEF735
:101BC000E6FD002652A15148FEF7F3FC0446002C26
:101BD00072D00B3406E022783046711CCEB201A9D7
:101BE0000A54641C20782C28F5D1002001A98855BE
:101BF00001A8FEF7BFFC0746AF70142101A8FEF74D
:101C0000C6FD0026A41C06E014F8012B3046711C0A
:101C1000CEB201A90A5420782228F5D1002001A9CA
:101C200088553EA101A8FEF7D9FD10B90021E97041
:101C30000BE03BA101A8FEF7D1FD20B90121E9701D
:101C400003E058E055E00221E970142101A8FEF7F5
:101C50009EFD00260027E41C06E014F8012B314607
:101C6000701CC6B2281D425420782228F5D10020CD
:101C700001A98855142101A8FEF789FD0026002737
:101C8000A41C06E022783046711CCEB201A90A5489
:101C9000641C20782C28F5D1002001A9885501A8C2
:101CA000FEF768FC0746AF82142101A8FEF76FFD1E
:101CB00000260027641C07E019E022783046711CDA
:101CC000CEB201A90A54641C20780D28F5D101A8D0
:101CD000FEF750FC074617B90021297603E0012FD3
:101CE00001D101212976012006B0BDE8F081012053
:101CF000FAE70020F8E70020F6E70000E2220008FB
:101D00006C2200085354415455533A00A40100205A
:101D10002B4349505354415455533A0054435000B7
:101D20005544500010B5FFF719FA07A1084800F014
:101D30004FFA42F210710748FFF73EFB08B101204D
:101D400010BD0020FCE7000041540D0A0000000017
:101D5000003801406C2200080848806940F01000FB
:101D6000064988610648406820F4400004494860FC
:101D70000846406840F480104860704700100240F8
:101D80000010014086B000F0BDF800F065F900F0E9
:101D9000C1F9FFF7E1FF00F033F9FFF787F9FEF72C
:101DA000A3FF00BB2C48FEF7E5FFE0B12A4800780E
:101DB00029494978284A9278274BDB78CDE90232C5
:101DC000CDE904102448007923494979CDE9001070
:101DD00021488379C27921A12C48FEF763FA2B4967
:101DE0002B4800F01CFAFFF7A3F918B129A12848E5
:101DF00000F015FA07E02BA1254800F0E9F941F2BF
:101E00008830FFF731F901212A48FFF7B5F900289A
:101E1000F1D029A11E4800F0DBF900F0D1F819E05B
:101E20002A48FFF785FE68B128480078052804D1C4
:101E300027A1174800F0CCF908E02B492B48FFF701
:101E400059FD03E02AA1124800F0C2F942F20F70D6
:101E5000FFF70AF9E4E7000004000020445331389A
:101E600042323020524F4D202530327825303278A2
:101E70002530327825303278253032782530327866
:101E80002530327825303278200D0A0040010020BC
:101E900000440040496E6974207375636365737311
:101EA0000D0A00004E6F20636F6E6E656374696F7C
:101EB0006E0D0A0034000020436F6E6E656374205F
:101EC000737563636573730D0A0000000E000020D4
:101ED0004553503832363620535441545553204ED2
:101EE0004F574946490D0A00DC0000202800002019
:101EF0004572726F720D0A00014800687047000059
:101F0000C40000202C48006840F480302A49086052
:101F100000BF2948006800F400300028F9D01320E1
:101F200026490860244840682349486008464068BC
:101F300040F4A06048600846406840F42050486083
:101F40000846406820F4701048600846406820F455
:101F5000803048600846406820F4003048600846F9
:101F6000406840F480304860084640684860084651
:101F7000406840F4E01048600846006840F0807017
:101F8000086000BF0C48006800F000700028F9D01D
:101F90000948406820F00300074948600846406847
:101FA00040F00200486000BF0348406800F00C00A9
:101FB0000828F9D1704700000010024000200240BC
:101FC00010B50E48C06940F001000C49C86148F6E0
:101FD0009F408904088542F20F708885002088841C
:101FE000012088828007808940F0010088810120DB
:101FF00008801C20FEF762FE10BD000000100240A9
:1020000010B51348C06940F002001149C86148F694
:102010009F401049088040F2E730091D08800020E9
:102020000C49091F088001200A4914390880094811
:102030001C38008840F0010006491C390880012046
:102040000449283908801D20FEF738FE10BD000025
:10205000001002402804004010B52B48806940F46D
:102060008040294988610846806940F00400886101
:102070000846806940F0010088612448006820F02B
:10208000C000224908600846006840F080000860EF
:102090000846006840F0100008600846006820F418
:1020A000406008600846006840F4806008600846A8
:1020B000006820F4807008609C2015490880081D85
:1020C000008840F40050091D08800846008840F050
:1020D000080008800846008840F004000880084690
:1020E000008840F0200008800846008820F48050D6
:1020F0000880081D008820F44050091D0880252014
:10210000FEF7E7FD10BD000000100240040801408A
:102110000838014010B52B48C06940F40030294907
:10212000C8610846806940F00400886108468069FB
:1021300040F0010088612448006820F44060224992
:1021400008600846006840F40060086008460068BF
:1021500040F4807008600846006820F44040086041
:102160000846006840F4804008600846006820F493
:10217000805008609C2015490880081D008840F4A4
:102180000050091D08800846008840F008000880BB
:102190000846008840F0040008800846008840F0A7
:1021A000200008800846008820F480500880081D20
:1021B000008820F44050091D08802620FEF789FD84
:1021C00010BD00000010024000080140084400401B
:1021D0002DE9F04104460D462846FEF720FA87B265
:1021E000002610E0208820F040002080297820463A
:1021F00000F00DF800BF208800F040000028FAD061
:102200006D1C701C86B2BE42ECDBBDE8F08100BFE5
:10221000028802F08002002AFAD08180704730B52F
:1022200005460B46002406E02046621CD4B2195C29
:102230002846FFF7ECFF185D0028F5D130BD0000FF
:1022400010B500290AD00878002807D0054878443E
:10225000FEF7C4FA002801D0002010BD02487844DF
:1022600010BD0000A60100009E0100004F4B0D0AAA
:10227000004552524F520D0A004641494C007265CA
:10228000616479002B4950442C002B43495053542E
:102290004154555300002B525354002B474D5200CC
:1022A0004531004530002B55415254002B43574DCA
:1022B0004F4445002B43574A4150002B43574C4154
:1022C00050002B4357514150002B4357534150006E
:1022D0002B43574C4946002B4349505354414D41E1
:1022E00043002B434950535441545553002B434909
:1022F000505354415254002B43495053454E4400CF
:102300002B434950434C4F5345002B4349465352AE
:10231000002B4349504D5558002B434950534552CB
:10232000564552002B4349504D4F4445002B5049D0
:102330004E47005354415455533A3200535441547C
:1023400055533A33005354415455533A340053547F
:10235000415455533A3500000500000000000000CC
:10236000000000000000000000000000000000006D
:102370000000303132333435363738394142434446
:1023800045464030580030313233343536373839ED
:1023900061626364656640307800040000080000F4
:1023A0000000000000020001000010007061737363
:1023B0003030303000000000383000003138342E2A
:1023C0003130362E3135332E313439004D795F5767
:1023D000494649000425000800000020DC000000F8
:1023E00028010008E0250008DC000020B4090000F6
:1023F000440100081001000043000000F8FFFFFF47
:102400000040404040404040404041414141414007
:1024100040404040404040404040404040404040BC
:10242000400502020202020202020202020202024B
:102430000220202020202020202020020202020250
:1024400002029090909090901010101010101010A8
:1024500010101010101010101010101002020202B4
:1024600002028888888888880808080808080808F8
:1024700008080808080808080808080802020202F4
:10248000400000000000000000000000000000000C
:10249000000000000000000000000000000000003C
:1024A000000000000000000000000000000000002C
:1024B000000000000000000000000000000000001C
:1024C000000000000000000000000000000000000C
:1024D00000000000000000000000000000000000FC
:1024E00000000000000000000000000000000000EC
:1024F00000000000000000000000000000000000DC
:1025000000000000000000000000000000000000CB
:1025100000000500000000000000000000000000B6
:10252000000000000000000000000000BC230008C4
:10253000B823000800000000CC230008AC230008EA
:10254000000000000000000000000000000000008B
:10255000000000000000486F73743A206170692E1B
:102560007468696E67737065616B2E636F6D0D0AB9
:10257000004163636570743A202A2F2A0D0A0055C2
:102580007365722D4167656E743A204D6F7A696C80
:102590006C612F342E302028636F6D706174696216
:1025A0006C653B2065737038323636204C75613B64
:1025B0002057696E646F7773204E5420352E312971
:1025C0000D0A000D0A0000000000000000A24A04ED
:1025D00000000000000000000102030406070809D3
:04000005080001B935
:00000001FF
