:020000040800F2
:10000000300A0020C9010008D1010008D30100080E
:10001000D5010008D7010008D90100080000000040
:10002000000000000000000000000000DB010008EC
:10003000DD01000800000000DF010008E91D0008E4
:10004000E3010008E3010008E3010008E301000800
:10005000E3010008E3010008E3010008E3010008F0
:10006000E3010008E3010008E3010008E3010008E0
:10007000E3010008E3010008E3010008E3010008D0
:10008000E3010008E3010008E3010008E3010008C0
:10009000E3010008E3010008E3010008E3010008B0
:1000A000E3010008E3010008E3010008E3010008A0
:1000B000591E0008B51E0008E3010008E30100080E
:1000C000E3010008E3010008E3010008E301000880
:1000D000E3010008F91E0008411F0008E3010008C1
:1000E000E3010008E3010008E301000800F002F862
:1000F00000F05AF80AA090E8000C82448344AAF168
:100100000107DA4501D100F04FF8AFF2090EBAE865
:100110000F0013F0010F18BFFB1A43F0010318473B
:10012000D0370000F0370000103A24BF78C878C1FB
:10013000FAD8520724BF30C830C144BF04680C60ED
:10014000704700000023002400250026103A28BF35
:1001500078C1FBD8520728BF30C148BF0B60704739
:10016000662903F07082642900F00881782900F084
:100170004181732900F06B86002070471FB59DE810
:10018000030000F097FB00F0ABFE0400002000210C
:1001900003F01AF8401C60600020002102F0FEFF0E
:1001A000E0601FBD10B510BD01F008F81146FFF763
:1001B000E5FF02F089FD01F034F803B4FFF7F2FF28
:1001C00003BC01F065F80000094880470948004772
:1001D000FEE7FEE7FEE7FEE7FEE7FEE7FEE7FEE7F7
:1001E000FEE7FEE704480549054A064B7047000054
:1001F000F91D0008ED00000830040020300A00203E
:10020000300600203006002070B5064600F032FBB4
:10021000056806F10B0020F00704B4429CBF0020E3
:1002200070BD2B466A68BAB11068A04210D304F1C1
:10023000080188423CBF5068586007D351681019C4
:1002400041601168091B016058601460101D70BD89
:1002500013465268002AE7D12146284600F016FBD3
:100260000028DED170BD70B50446051F00F002FB0A
:100270000068002C14BF446870BD002C18BFAC424D
:100280003CBF20466468F8D301680A18AA4218BF28
:10029000456003D12A680546114401602868411968
:1002A000A1421CBF6C6070BD616869602168084430
:1002B000286070BD0FB41CB5074B06AA7B44694685
:1002C0000090059800F099FD0020694600F0A8FD17
:1002D0001CBC5DF814FB0000610B000070B5044607
:1002E00085690068C10601D5302600E02026C007D8
:1002F00007D070BDD4E9012130469047206A401CE8
:1003000020626D1EF6D570BD70B504468569007813
:10031000C00707D170BDD4E9012120209047206A91
:10032000401C20626D1EF6D570BD70B50C460546AA
:10033000012A05D02878800600D5EA69002302E06A
:10034000012305E05B1C934202D2E05C0028F9D156
:10035000A869E618C01AA861286A184428622846C5
:10036000FFF7BCFF04E0D5E9012114F8010B904729
:10037000B442F8D32846FFF7C7FF70BD2DE9F0411E
:100380000646002410687529314616A510D0AFF333
:100390000080002802DA404213A507E031688A078E
:1003A00001D512A502E0490704D511A5012401E0F9
:1003B000AFF3008000210A2206F1240709E0B0FB18
:1003C000F2FCB0FBF2F302FB1C003030785418460C
:1003D000491C0028F3D123462A463046BDE8F041A7
:1003E00000F09EBA000000002D0000002B0000006D
:1003F0002000000070B504460D4621461068AFF39A
:1004000000802188090502D50F4A7A4402E00E4A8D
:100410007A440E32002104F1240305E000F00F06B7
:100420000009965D5E54491C0028F7D1207800230E
:10043000000704D5702D02D009B1022311322046E5
:10044000BDE8704000F06CBAB43300002DE9F05FF5
:10045000894604464FF0000ADFF824B1FB44C0F897
:1004600020A02046E168884700287DD0252806D0B6
:10047000D4E901219047206A401C2062F1E7002561
:100480005F462046E16888472028064607DB312E74
:1004900005D2B81910F8200C08B10543F1E7A807F8
:1004A00001D525F00405C4F81CA00027C4F818A045
:1004B0002A2E09D0304601F065FD38B304EB8708D9
:1004C000303EC8F8186019E059F8041B204604EBC8
:1004D00087029161E1688847012F064618D1E069DB
:1004E000002820DA25F020051DE0D8F8180000EBE0
:1004F000800006EB40003038C8F818002046E1685C
:100500008847064601F03EFD0028EED1012F0AD0B3
:100510002E2E08D12046E16888477F1C0646022F10
:1005200045F02005C4DBA069002803DA404245F00D
:100530000105A061E80701D025F01005A6B1A6F1DC
:100540004100192802D8203645F400654A46314654
:10055000204625604D46FFF703FE60B1012807D015
:10056000ED1D25F0070000E007E000F1080978E73D
:1005700005F1040975E730467AE7206ABDE8F09F87
:100580008A33000070B5064600F078F90468054625
:1005900030460A22002100F05EFC2C6070BD10B5D0
:1005A000431E13F8014F002CFBD105E011F8014B5D
:1005B000002C03F8014B03D0521EF7D20021197012
:1005C00010BD30B505460B462A4613F8014B12F80C
:1005D000010B08B1A042F8D01CB1002802D06D1C5C
:1005E000F1E7284630BD40EA0103024630B59B07DB
:1005F00010D14FF0013400E008C208C91D1B9D4313
:1006000015EAC41FF8D013F0FF0102F8011B0DD04A
:100610001B0AF8E711F8013B002B02F8013B05D05B
:1006200011F8013B002B02F8013BF3D130BD10B5AE
:10063000431C02E010F8011B71B18107FAD14FF0A1
:10064000013202C88C1A8C4314EAC211F9D0C01AC4
:100650000A0603D0C01E10BDC01A10BD0A0401D086
:10066000801E10BD0902FCD0401E10BD032A40F2BE
:10067000308010F0030C00F0158011F8013BBCF144
:10068000020F624498BF11F801CB00F8013B38BF5C
:1006900011F8013BA2F1040298BF00F801CB38BF6A
:1006A00000F8013B11F0030300F02580083AC0F088
:1006B000088051F8043B083A51F804CBA0E8081030
:1006C000F5E7121D5CBF51F8043B40F8043BAFF363
:1006D0000080D20724BF11F8013B11F801CB48BFBD
:1006E00011F8012B24BF00F8013B00F801CB48BFF3
:1006F00000F8012B704710B5203AC0F00B80B1E82C
:100700001850203AA0E81850B1E81850A0E8185046
:10071000BFF4F5AF5FEA027C24BFB1E81850A0E84F
:10072000185044BF18C918C0BDE810405FEA827C69
:1007300024BF51F8043B40F8043B08BF7047D20780
:1007400028BF31F8023B48BF11F8012B28BF20F821
:10075000023B48BF00F8012B70474FF0000204290C
:10076000C0F0128010F0030C00F01B80CCF1040CE0
:10077000BCF1020F18BF00F8012BA8BF20F8022B14
:10078000A1EB0C0100F00DB85FEAC17C24BF00F8BA
:10079000012B00F8012B48BF00F8012B70474FF0E8
:1007A000000200B5134694469646203922BFA0E8C1
:1007B0000C50A0E80C50B1F12001BFF4F7AF0907CD
:1007C00028BFA0E80C5048BF0CC05DF804EB8900BE
:1007D00028BF40F8042B08BF704748BF20F8022B01
:1007E00011F0804F18BF00F8012B70474FF0013C0B
:1007F00050F8042B51F8043B9A4221D1A2EB0C0390
:10080000934313EACC1317D150F8042B51F8043B4F
:100810009A4215D1A2EB0C03934313EACC130BD1EC
:1008200050F8042B51F8043B9A4209D1A2EB0C0377
:10083000934313EACC13DBD04FF00000704700BFA6
:10084000D01A01BAB1FA81F101F0180122FA01F0CF
:10085000CB40C1F12001DBB2C0B2C01A2CFA01F3C7
:10086000D11A914311EAC311E6D17047704770471E
:100870007047000000487047D803002000487047C8
:10088000D0030020704770477047704738B5044662
:100890000A4600206946AFF30080002808BF38BD33
:1008A00002460099204600F01FFB012038BD0120C0
:1008B00000F07CBCF8B5AFF30080054600200C4684
:1008C000102000BF0646A819A0420DD9324669463D
:1008D0000020AFF30080070008BF00F067FC00981D
:1008E000A04218BF0546C419FFF7C4FF05600746BC
:1008F000F01D20F007004619284600F00AF8B4421F
:1009000008BFF8BDA21B31463868BDE8F84000F0CA
:10091000EBBA00210160C0E9011070471020704758
:100920002DE9F0470D4699469246044600F1240809
:100930000168880604D5E06921F01001216000E01B
:100940000120A84201DD471B00E00027A1697A19B8
:1009500002EB0900081AA0612078C00602D42046E4
:10096000FFF7BCFC002608E0D4E901211AF80600D4
:100970009047206A401C761C20624E45F4DB2078AC
:10098000C0060AD52046FFF7A9FC06E0D4E90121FC
:1009900030209047206A401C2062381EA7F10107D2
:1009A000F4DC07E0D4E9012118F805009047206A3B
:1009B000401C2062281EA5F10105F3DC2046FFF74C
:1009C000A3FC2078000602D50220BDE8F0870120B4
:1009D000FBE770472DE9FF4F0C461E464FF0FF37EF
:1009E0008BB0D2E90001DDF860800A908A46C1F33D
:1009F0000A5505B93D46002108464FF00000BAF1FE
:100A0000000F00F4400005DA00EB80004FF44001D5
:100A100001EA50004FEA9059B9F1010F00DDB946E3
:100A20000A9850EA4A000ED044F61050A5F2FF355D
:100A300045432F14B8F1000F1ED07542291E1EDD4C
:100A4000C9F100021CE0B8F1010F4FF0000001D025
:100A5000302103E0F24305E02154401CB042FBDBAF
:100A600030460022002121540B99C1F80880C1E9C9
:100A700000200FB0BDE8F08FBD1B6D1CDEE74A46BD
:100A800000DA694206A800F01FFB06AB93E80700F6
:100A900003AB83E8070050460A9900F01FFC8DE87D
:100AA0000700A0F500501F3800900398002D0ADDC4
:100AB00042F21F014A460844002303A903906846F6
:100AC00000F088FE09E0A0F500504A461F380023D8
:100AD00003A90390684600F092FE8DE80700000429
:100AE000000C03D04FF0FF30410800E01046B8F191
:100AF000000F03D00022009215461EE0751E05D49B
:100B000000F00CFA303262556D1EF9D5B346012261
:100B1000084302D000227F1C04E02078302801D155
:100B200000227F1E002A099784D01DE0112D07DACC
:100B300000F0F4F9303262556D1C50EA0102F5D133
:100B4000084302D00098C8B10EE00021681E05E0FD
:100B5000235C625C63542254401E491C8142F7DBD3
:100B6000AB46A81B401E0990002004F80B000B9810
:100B7000099AC0F80880C0E9002B7AE711264FF0E7
:100B8000000857E72DE9F04F88460446D21D22F0B1
:100B9000070191B0D1E90001CDE90A0101F0DEF9C8
:100BA00002460B98C00F01D02D2007E02068810776
:100BB00001D52B2002E0202101EAC000032A099080
:100BC00001D0072A05DB03464146204600F0ECF938
:100BD0000BE12078800601D5E06900E00620B8F13D
:100BE000650F814606D0B8F1660F18D0B8F1670FCF
:100BF00070D131E00020B9F1110F009001DB112319
:100C000001E009F101030AAA01A90CA8FFF7E2FE1D
:100C1000DDE90C70002609F10105834647E001205B
:100C20004B4600904FF000470AAA01A90CA8FFF715
:100C3000D1FEDDE90DB00C995D46002610B909F131
:100C400001000D18B9EB050003D4C0F1FF3609F11E
:100C50000105A5EB09002BE0B9F1010F01DA4FF016
:100C600001090020B9F1110F0090484601DD112360
:100C700000E003460AAA01A90CA8FFF7ABFEDDE9D4
:100C80000C704D4600268346207800070AD4AB45F9
:100C900000DA5D4601A8012D04DD411911F8011C9F
:100CA000302907D04F4502DA17F1040F04DA01208A
:100CB00082460FE06D1EEEE7002F02DCED1B3E4486
:100CC00003E0781CA84200DD7D1CB81B00F1010A7E
:100CD0004FF000472078000703D4AA4501DB4FF00E
:100CE000FF3A0021B7F1004F0DF143088DF8431092
:100CF00024D002202B23002F01DA7F422D230A214A
:100D0000021EA0F1010000DC5FB197FBF1FC97FB34
:100D1000F1F201FB1C7C17460CF1300C08F801CDF8
:100D2000EEE7A8F1010003702188090501D54521EE
:100D300000E06521A0F1010800F8011C09980FA945
:100D4000A1EB0807FF1D00B10120411901EBEA707A
:100D5000A1693844081A401EA0612078C00602D458
:100D60002046FFF7BBFA099828B1D4E90121904742
:100D7000206A401C20622078C00622D52046FFF75A
:100D8000ADFA1EE0002E04DBB34502DD01A8805D54
:100D900000E03020D4E901219047206A401C206205
:100DA000761CAAF101005FEA000A0AD100F098F867
:100DB000C0680168405CD4E901219047206A401C6A
:100DC0002062281EA5F10105DCDC07E0D4E9012141
:100DD00018F8010B9047206A401C2062381EA7F1CA
:100DE0000107F3DC2046FFF78FFA032011B041E63C
:100DF00001694A1C02610878704700B58FB0CDE9DF
:100E000001310021059105497944CDE903101146CE
:100E10006846FFF71BFB0FB000BD0000E5FFFFFFBA
:100E20000A6802F8010B0A60704710B5436913B1F4
:100E3000AFF3008001E0FFF778FA012010BD1278CF
:100E400000F124010A7000224A700122EDE71168C6
:100E50004FF0FF32E9E72DE9F04791460F46804613
:100E60000446002614F8015B2DB100F031F800684B
:100E7000405DC007F6D12B2D02D02D2D18D0641E59
:100E80004A463946204600F0CFF827B13968A142DA
:100E900001D1C7F800804FF0020471050BD5404224
:100EA000002803DDFFF7EAFC0460A007BDE8F08737
:100EB00046F48066E4E70028F8DAFFF7DFFC046018
:100EC0006FF00040F2E7000000487047D0030020B8
:100ED00010B500F005F8001D10BD00BFED220000A8
:100EE00000487047F0030020034640688C46002805
:100EF00018BF88423CBF03464068F8D318681844BE
:100F0000884207D00CF1030020F00700001D411AB1
:100F1000521A0146081D0A60FFF7A5B930B5B0F1B5
:100F20000A024FEA900E71F100034EEA817EB0EBA7
:100F30000E0061EB91014FEA101E4EEA017E10EBAC
:100F40000E0041EB11114FEA102E4EEA016E10EB2C
:100F50000E0041EB11214FEA104E4EEA014E10EB0C
:100F60000E0041EB1141401841F100014FEAD00061
:100F700040EA41704FEAD10110EB80054FEA81044D
:100F800044EA907444EB01046D1944EB0404521BD1
:100F9000A3414FF0000348BF0A3200D530BD401CCA
:100FA00041F1000130BD00002DE9F0411F4604462B
:100FB00003260168072A01F4006004DB08B116A5C6
:100FC00005E016A503E008B115A500E015A521F080
:100FD00010002060A069C01EA0610FB1401EA0617A
:100FE0002046FFF77BF94FB1D4E9012138469047FD
:100FF000206A401C2062C01C206206E0206AFAE7DA
:10100000D4E9012115F8010B9047761EF8D220464D
:10101000FFF77AF9BDE8F0814E414E006E616E0037
:10102000494E4600696E66002DE9F05F824615461E
:101030008B4600270AF10104B9460078302801D018
:101040009DB113E014F8010B0127782803D058282C
:1010500001D045B10AE00DB1102D07D1002714F8D9
:10106000010B102502E0082500E00A250026B04605
:101070000EE005FB080005FB06F101271FFA80F8CA
:1010800001EB1046B6F5803F00D3B94614F8010BCA
:10109000294600F0B8F80028EBDABBF1000F05D0C4
:1010A0000FB1641E00E05446CBF80040B9F1000FC8
:1010B00006D0FFF7E3FB02210160C81EBDE8F09FE8
:1010C00048EA0640FAE700002DE9F0478146164657
:1010D0008AB0354878440DC88DE80D003248784410
:1010E000801C03AC0DC884E80D0041F69B30084419
:1010F000372190FBF1F290FBF1F5A5F1800501FBA2
:1011000012041B3C02D56442012000E00020DFF8FD
:1011100098A080460027FA44AAF1BE0A0EE0E00734
:101120000AD03246684607EB470101230AEB8101EA
:1011300000F065FB8DE8070064107F1C002CEED1E9
:10114000194F7F44AE3F19E0E80715D007EB0410B4
:101150000DF1180A90E80E008AE80E00C068F0420F
:1011600001D1981908903246012306A903A800F07E
:1011700046FB03AB83E807006D10641C002DE3D130
:101180004FF0010332466946B8F1000F03A802D0C0
:1011900000F020FB01E000F032FBC9E90001C9F8D2
:1011A00008200AB0BDE8F087A027000010B500F0C5
:1011B00047F8BDE8104000F03DB870477546FFF7AE
:1011C00083FEAE4605006946534620F0070085467B
:1011D00018B020B5FFF706F8BDE820404FF0000634
:1011E0004FF000074FF000084FF0000B21F007010F
:1011F000AC46ACE8C009ACE8C009ACE8C009ACE852
:10120000C0098D4670473A2800D2303820F02002BD
:10121000412A01D3A2F13700884201D34FF0FF30B9
:10122000704710B50446AFF300802046BDE810407B
:10123000FEF7C3BF002801D000F02AB870470000B5
:1012400010B5012805D0002103A000F027F80120E7
:1012500010BD09A1F8E7000053494752544D454DD0
:101260003A204F7574206F662068656170206D6547
:101270006D6F7279000000003A2048656170206D42
:10128000656D6F727920636F72727570746564003A
:1012900001491820ABBEFEE72600020070B50546E6
:1012A0000C460A2000E06D1C00F011F835B12878DA
:1012B0000028F8D102E0641C00F009F814B120788D
:1012C0000028F8D1BDE870400A20AFF3008008B5CF
:1012D00069468DF800000320ABBE08BD5FEA400CF4
:1012E00008BF91F0000F4FEA8C234FEAC12243EA76
:1012F00051514FEA1C5018BF00F5F0404FEA300042
:1013000018BF41F000415FEA6C5C00F02980BCF13D
:10131000FF3F08BF40F080407047130C06BF120427
:101320004FF0100C4FF0000C130E04BF12020CF122
:10133000080C130F04BF12010CF1040C930F04BF2F
:1013400092000CF1020CD30F04BF52000CF1010CFF
:1013500011464FF00002A0F11F00A0EB0C007047F7
:1013600011F0004F08BF704731F000413FF4D5AF96
:101370000B0C06BF09044FF0100C4FF0000C0B0EC5
:1013800004BF09020CF1080C0B0F04BF09010CF19A
:10139000040C8B0F04BF89000CF1020CCB0F04BFAF
:1013A00049000CF1010CCCF12003A0EB0C0022FA57
:1013B00003F302FA0CF241EA030100F10100704765
:1013C00020F07F4C80EA030023F07F47ACEB07035B
:1013D00003F57C5300F0004003F1FF032DE9804941
:1013E0004FEA154B09B44FEA144325EA0B4E24EAA1
:1013F00003480FF2042606EB132749083E785FEAFC
:10140000320203FB0667C7F5000707FB06F64FEA43
:1014100054374FEAD64606F1020607FB066CCCF1BC
:10142000005C4FEA1C472CEA074C07FB06F40CFB58
:1014300006F504EB15464FEA961634BF00204FF030
:1014400000404FEAD13706FB07FC4FEA1C4C0CFB6F
:101450000BF7D21B03FB0CF761EB07010CFB0EF73C
:10146000B0EB074072EB17420CFB08F734BFA2EB5E
:101470000742B2EB074261EB17414FEA0C444FEAD7
:10148000910706FB07FC4FEA1C4C0CFB0BF7B0EB7B
:10149000C74072EB573203FB0CF734BFA2EBC742D5
:1014A000B2EBC74261EB57310CFB0EF7B0EBC70054
:1014B00072EB57720CFB08F734BFA2EBC702B2EB1A
:1014C000C70261EB5771039F4FEA816141EA9211B4
:1014D00004EBCC044FEAD1374FEA826206FB07FCEB
:1014E00042EA90124FEA80604FEA1C4C0CFB0BF76B
:1014F000D21B03FB0CF761EB07010CFB0EF7B0EB03
:10150000074072EB17420CFB08F734BFA2EB07420F
:10151000B2EB074261EB17414FEA8C554FEA910756
:1015200004EB9C2406FB07FC4FEA1C4C0CFB0BF75E
:10153000B0EBC74072EB573203FB0CF734BFA2EBA2
:10154000C742B2EBC74261EB57310CFB0EF7B0EB71
:10155000C70072EB57720CFB08F734BFA2EBC7024F
:10156000B2EBC70261EB577115EB4C254FEA816175
:1015700041EA92114FEA82624FEAD13742EA901271
:1015800006FB07FC44F100044FEA80604FEA1C4C64
:101590000CFB0BF7D21B03FB0CF761EB07010CFBF9
:1015A0000EF7B0EB074072EB17420CFB08F734BFA5
:1015B000A2EB0742B2EB074261EB174115EB1C159A
:1015C0004FEA813141EA92414FEA823242EA904247
:1015D0004FEA80304FEA0C7644F1000448EA0343B6
:1015E0004EEA0B484FF0000EB2EB080C71EB03070C
:1015F00024BF624639464EEB0E0E4FF0000B00182A
:10160000524149414BEB0B0BB2EB080C71EB03075A
:101610007BF1000B24BF624639464EEB0E0E4FF0B5
:10162000000B0018524149414BEB0B0BB2EB080C7D
:1016300071EB03077BF1000B24BF624639464EEB8A
:101640000E0E51EA020718BF46F0010616EB0E76A1
:1016500055F1000254F1000103D5BDE88901BDE850
:101660000088BDE88901BDE80048B619524141EB48
:101670000101A3F10103704780807F7E7D7C7B7A2E
:101680007978777676757473727171706F6E6E6D2E
:101690006C6C6B6A6A6968686766666564646363D4
:1016A00062616160605F5F5E5E5D5D5C5C5B5B5A5A
:1016B0005A595958585757565655555554545353C7
:1016C00052525251515050504F4F4F4E4E4D4D4D22
:1016D0004C4C4C4B4B4B4A4A4A494949484848476D
:1016E00047474746464645454544444444434343AB
:1016F0004342424242414141002B9C4630D4770054
:101700002BD01CB54FEA370703B44FF010004FF051
:101710001001BAF1000F06D0BCF1000FDCBF40F0A1
:10172000080040F008014FF000000FBCBDE8104079
:101730000BF1010BBBF1010F08BF5FEA170722BFD6
:1017400012F1010211F101014FF0004143F10003D8
:1017500000F0004043EA00007047F9D35708D0E793
:1017600046EA064613F1400F4FEA16461FDD13F115
:10177000200FDFBF16430A46002120335B42BED054
:10178000C3F1200746EA064602FA07F74FEA164673
:1017900046EA0706C3F1200722FA03F201FA07F727
:1017A00021FA03F14FF0000342EA0702A7E746EAF5
:1017B000020646EA06464FEA164646EA0106BCBF5E
:1017C00046EA0646360C4FF000034FF000024FF099
:1017D000000194E72DE9804C9A46934670B491E855
:1017E000380007C831EA400C48BF34EA430C03D53F
:1017F000FFF7E6FDFFF780FFF0BCBDE8008C2DE9A8
:10180000804C9A46934670B491E8380007C810F0AF
:10181000804F08BF13F0804F03D100F005F8FFF7A9
:101820006BFFF0BCBDE8008C20F07F4780EA03002E
:1018300023F07F4C07EB0C03A3F57C5300F0004032
:10184000A3F1FE0392F0000F00F0B38095F0000FBB
:1018500000F077802DE901494FEA11404FEA144624
:1018600021EA004800FB06FC24EA064708FB06F6CE
:1018700007FB08F800FB07F718EB06484CEB164C83
:101880004FEA124B18EB07484FEA15464CEB17404E
:1018900022EA0B4E0BFB06FC25EA06470EFB06F67A
:1018A00007FB0EFE0BFB07F71EEB064E4CEB164C30
:1018B0004FF000061EEB074E4CEB174B18EB0B08D6
:1018C00040F1000018EB0E0B58EB000840F100004F
:1018D0008F1A4FF000013CBFC943661B14BFB5EB24
:1018E000040C00213CBFC943F61B4FEA17444EEAE3
:1018F0008E0E27EA04454FEA1C4704FB07622CEAD8
:10190000074C05FB07F70CFB05F604FB0CFC16EB7C
:10191000074642EB174216EB0C4642EB1C421BEB10
:10192000060658EB0202414146EA9E0601D5BDE893
:101930000189B619524141EB0101A3F10103BDE850
:1019400001894FEA14454FEA114724EA054621EA86
:10195000074C05FB07F406FB07F70CFB06F105FB3C
:101960000CFC11EB074144EB17444FEA124711EB13
:101970000C4144EB1C4422EA074C05FB07F206FB32
:1019800007F70CFB06F605FB0CFC16EB074642EBD3
:10199000174216EB0C4642EB1C456A1854F1000145
:1019A00048BF7047B619524141EB0101A3F1010351
:1019B000704795F0000F37D04FEA11424FEA1447B5
:1019C00021EA024624EA074C02FB07F106FB07F76F
:1019D0000CFB06F402FB0CFC14EB074441EB174133
:1019E0004FEA154714EB0C4441EB1C4125EA074C28
:1019F00002FB07F506FB07F70CFB06F602FB0CFCE7
:101A000016EB074645EB174516EB0C4645EB1C421B
:101A1000121951F1000148BF7047B619524141EB0C
:101A20000101A3F1010370474FEA14454FEA114742
:101A300024EA054621EA074C05FB07F106FB07F7F8
:101A40000CFB06F24FF0000605FB0CFC12EB074204
:101A500041EB174112EB0C4251EB1C4148BF704760
:101A6000921841EB0101A3F10103704700F01F023E
:101A700001219140024A430942F8231070470000B7
:101A800080E100E000F01F02012191404209920034
:101A900002F1E022C2F80011704700F01F0201219C
:101AA00091404209920002F1E022C2F80011704711
:101AB00000F01F02012191404209920002F1E02250
:101AC000C2F800117047000010B50F48006840F0E0
:101AD00080700D49086000F0F7F840F2E51000F062
:101AE0009BFA00F0DDF8412000F096FA064808382D
:101AF00000680020054908704FF4FA7000F08CFA75
:101B00000248007810BD0000100C01404400002085
:101B100070B50546FFF7D8FF552000F0A1F8002466
:101B200004E0285D00F09CF8601CC4B2082CF8DBCF
:101B3000012070BD2DE9FE4F8046002000900190ED
:101B40000290FFF7C1FF4046FFF7E2FF442000F09C
:101B500087F8FFF7B9FF4046FFF7DAFFBE2000F035
:101B60007FF8002705E000F047F80DF80700781C23
:101B7000C7B2092FF7DB9DF80100702101EA0010C0
:101B80009DF8001040EA21159DF8000000F00F06B6
:101B900006EB460046009DF80100FB2802DDC5F17A
:101BA0007F00C5B2642E10DA304601F079FC83461E
:101BB0000F4901F0B3FB8146284601F071FC8246D3
:101BC000494601F049FB04460FE0304601F068FC4D
:101BD0008346084901F0A2FB8146284601F060FCDB
:101BE0008246494601F038FB04462046BDE8FE8F98
:101BF0000000C84200007A4470B50024002516E0B9
:101C000000F062F8022000F007FA00F049F8042022
:101C100000F002FA64100848006800F4807008B10F
:101C200044F080043E2000F0F7F9681CC5B2082D8E
:101C3000E6DB204670BD0000080C014070B505468B
:101C4000FFF742FF332000F00BF8002404E0FFF719
:101C5000D3FF2855601CC4B2082CF8DB012070BDEE
:101C600070B50446002517E000F02EF8022000F0C1
:101C7000D3F904F0010010B100F012F801E000F017
:101C800023F864103E2000F0C7F900F009F80220A4
:101C900000F0C2F9681CC5B2082DE5DB70BD00007C
:101CA0000848006820F00C000649086008460068F3
:101CB00040F0040008600846006820F00300086057
:101CC00070470000040C01400B48806940F0080098
:101CD000094988610948006820F004000749086044
:101CE0000846006840F0080008600846006840F0B8
:101CF000030008607047000000100240040C01401F
:101D000010B500F001F810BD0CB500200190009056
:101D10003348006840F480303149086000BF3048E3
:101D2000006800F4003000900198401C0190009879
:101D300018B90198B0F5A06FF1D12948006800F4F6
:101D4000003010B10120009001E0002000900098C8
:101D5000012843D12348006840F010002149086061
:101D60000846006820F0030008600846006840F05C
:101D7000020008601A4840681949486008464068EF
:101D800048600846406840F4806048600846406803
:101D900020F47C1048600846406840F4E810486031
:101DA0000846006840F08070086000BF0C4800687A
:101DB00000F000700028F9D00948406820F00300C6
:101DC000074948600846406840F00200486000BF8C
:101DD0000348406800F00C000828F9D10CBD000051
:101DE000001002400020024002480068401C0149E7
:101DF000086070476400002010B51348006840F088
:101E000001001149086008464068104908400E4921
:101E10004860084600680E4908400B4908600846BB
:101E2000006820F4802008600846406820F4FE0026
:101E300048604FF41F008860FFF762FF4FF00060BA
:101E40000449086010BD0000001002400000FFF8C7
:101E5000FFFFF6FE08ED00E070B54FF08040008A0D
:101E600000F00100D0B14FF08040008A20F0010066
:101E70004FF080410882FFF727FE78B90848FFF746
:101E800059FE084908600846006801F0B9F904469F
:101E900022460B4604A10648FEF70CFA70BD00006E
:101EA000040000200000002025302E3166000000D4
:101EB0007C0000200E48008800F00100B8B10C48FA
:101EC000008820F001000A4908800A48C06800F430
:101ED000005030B10748006940F0005005490861E2
:101EE00005E00448006940F4005002490861704769
:101EF00010040040001001400E48008800F020004F
:101F000078B10C48008820F020000A490880091D9B
:101F10000988CAB208490868411C074B196007497B
:101F20000A5405480068B0F5007F02D3002002493A
:101F3000086070470038014048000020440100203C
:101F40000548008800F0200028B10348008820F0F0
:101F5000200001490880704700440040490050EAD1
:101F6000C12018BF04204A0D18BF40F0010040F204
:101F7000FF72B2EB515F08BF40F00200012808BFBA
:101F80000520704730380A2801D201207047002010
:101F9000704700000E4909880E4A1180111D088003
:101FA0000021121F118001210A4A283A118000BF26
:101FB00008491839098801F001010029F8D00549BC
:101FC0001839098821F00101024A183A1180704736
:101FD0003C000020282C01400A4800684FF47A7128
:101FE000B0FBF1F008490860064800680749B0FBFB
:101FF000F1F0074908600748806940F4006005492E
:1020000088617047680000203C00002040420F00BB
:1020100040000020001002400E4909880E4A11803D
:10202000111D08800021121F118001210A4A283A3F
:10203000118000BF08491839098801F00101002901
:10204000F8D005491839098821F00101024A183AE7
:102050001180704740000020282C014010B500245A
:1020600000BF00F07BF90028FBD000F0FDFD044626
:102070003CB1002000F018FA08B1012010BD00208A
:10208000FCE70020FAE7000010B54FF400710348A8
:10209000FEF763FB00200249086010BD44010020E8
:1020A0004800002070B504460D460026012D42D19F
:1020B00000BF00F053F90028FBD0284600F0DAF901
:1020C00000287CD051A1574801F057F8FFF7DCFFFA
:1020D00055A1564801F02AF85549544801F026F810
:1020E00054A1524801F022F85048216801F01EF82E
:1020F00051A14E4801F01AF8606878B14FA14B48E1
:1021000001F014F84CA1494801F010F84748616803
:1021100001F00CF848A1454801F008F848A14348EF
:1021200001F004F847F230524649474800F0F1F810
:102130000646304670BD022D59D100BF00F00EF9A1
:102140000028FBD000BF00F0A5F80028FBD02846EF
:1021500000F090F9002856D03CA1324800F0E6FF8C
:10216000FFF792FF30A1314800F0E0FF3E492F48D1
:1021700000F0DCFF2FA12D4800F0D8FF2B4821688C
:1021800000F0D4FF2CA1294800F0D0FF606878B19E
:102190002AA1264800F0CAFF27A1244800F0C6FF64
:1021A0002248616800F0C2FF23A1204800F0BEFF72
:1021B00022A11E4800F0BAFF39211C4800E022E0AD
:1021C00000F0D3FF1DA1194800F0B0FF34211748DB
:1021D00000F0CBFF1AA1154800F0A8FF47F23052DB
:1021E0001849194800F095F806463046A2E7032D35
:1021F00009D1284600F03EF928B11CA1094800F099
:1022000095FFFFF741FF002094E700004D6F6465E4
:102210002073657420746F2073746174696F6E0D20
:102220000A00000000440040415400000038014012
:10223000943600083D220000220000002C0000001F
:102240000D0A0000593600084C3600084D6F6465D1
:102250002073657420746F206163636573732070ED
:102260006F696E740D0A0000A93600084D6F646531
:102270002073657420746F206163636573732070CD
:102280006F696E7420616E642073746174696F6E1F
:102290000D0A000010B5FFF7F7FE09A10E4800F087
:1022A0006CFF0024002202210C4800F0B5F842F235
:1022B00010710B4800F016F80446204610BD0000CF
:1022C000446973636F6E6E65637420455350383292
:1022D00036360D0A0000000000440040A236000817
:1022E0004C36000870B505460C4600F0B3FD0646B6
:1022F00008E000F063F828B1284600F069F808B15A
:10230000012070BD00F0A6FD31198842F1D30020F4
:10231000F7E72DE9F04107460C461546002600F088
:1023200099FD804611E000F049F870B1384600F0A0
:102330004FF8064616B10120BDE8F081204600F0B6
:1023400047F806460EB10020F6E700F083FD08EBE3
:1023500005018842E7D30020EEE7000010B5FFF743
:1023600093FE0EA1114800F008FF00240022022174
:102370000F4800F051F842F210710E48FFF7B2FF1B
:1023800004464FF4FA70FFF705FE42F210710A4856
:10239000FFF7A8FF0446204610BD00005265736594
:1023A0007420455350383236360D0A000044004040
:1023B000763600084C3600085E3600080348006890
:1023C00008B1012070470020FCE700004800002011
:1023D0002DE9F041044600250E48FEF728F906468F
:1023E000B6F5007F09DA21460A48FEF7EAF810B18F
:1023F0000120BDE8F0810020FBE72046FEF717F939
:102400000746002500E06D1CB5F5007FFBDB00BF33
:102410000020EEE74401002070B505460C46164644
:10242000FFF732FE0EA10F4800F080FE29460D484E
:1024300000F07CFE24B90CA10A4800F077FE09E008
:10244000012C07D109A1074800F070FE314605486C
:1024500000F06CFE06A1034800F068FE70BD0000AD
:1024600041540000003801403F0000003D000000E2
:102470000D0A000038B5044600200090224607A14E
:102480006846FDF717FF6A4601210548FFF7C4FFBC
:1024900042F210710348FFF725FF38BD25640000A4
:1024A0008C3600084C36000838B50446002500205C
:1024B0000090002C01DD312000E030208DF800007C
:1024C0006A4601210548FFF7A7FF42F21071044850
:1024D000FFF708FF0546284638BD0000F136000822
:1024E0004C36000810B594B004461C223E490DA895
:1024F000FEF701F90DA800F0BDFA00286DD09DF897
:102500003400022803D139A13C4800F00FFE9DF8A9
:102510003400032803D13AA1384800F007FE9DF8A3
:102520003400042803D13BA1344800F0FFFD9DF89E
:102530003400052803D13DA1304800F0F7FD9DF897
:102540003400032849D19DF836203CA16846FDF7A8
:10255000B1FE6946294800F0E9FD0DA8C07820B910
:1025600037A1264800F0E2FD0CE00DA8C078012854
:1025700004D135A1214800F0D9FD03E034A11F4862
:1025800000F0D4FD34216846FEF709F90EAA34A103
:102590006846FDF78FFE6946184800F0C7FD3421F4
:1025A0006846FEF7FCF80DA8828A24A16846FDF76C
:1025B00081FE6946114800F0B9FD0DA8007E20B9E2
:1025C00028A10E4800F0B2FD07E00DA8007E01280A
:1025D00003D127A1094800F0A9FD1A220DA9204620
:1025E000FEF744F814B010BDA83700085354415406
:1025F000555320474F544950090000000044004003
:1026000053544154555320434F4E4E454354454433
:102610000900000053544154555320444953434F3B
:102620004E4E454354454409000000005354415464
:102630005553204E4F574946490D0A00256409005D
:1026400054435009000000005544500900000000A8
:102650005459504520554E444546494E454409007D
:1026600025730900434C49454E540D0A00000000F3
:102670005345525645520D0A0000000010B5002483
:10268000002202210548FFF7C7FE42F210710448FC
:10269000FFF728FE0446204610BD0000E036000883
:1026A0004C36000870B504460025FFF7EDFC20A16C
:1026B000204800F03BFD20491E4800F037FD1FA1D7
:1026C0001C4800F033FD207A20B91DA1194800F004
:1026D0002DFD06E0207A012803D11BA1154800F04A
:1026E00025FD1BA1134800F021FD1248216800F0D0
:1026F0001DFD14A10F4800F019FD0E48616800F09F
:1027000015FD14A10B4800F011FD41F28832124969
:102710001248FFF7FEFD054645B911A0FFF758FE28
:1027200005460DB1012070BD0020FCE70120FAE74D
:102730004154000000380140CD3600083D00000043
:1027400022544350222C000022554450222C0000D9
:10275000220000000D0A0000513600084C36000827
:10276000414C5245414459002DE9FC4105460C4677
:102770004FF0000800262F46B4F5006F02DD002060
:10278000BDE8FC8122461FA16846FDF793FD6A461D
:1027900001211D48FFF740FE42F210721B491C4800
:1027A000FFF7B7FD8046B8F1000F29D0FFF76CFCAA
:1027B000002613E01748008820F0400015490880E3
:1027C0003978144800F0D1FC00BF1248008800F0AE
:1027D00040000028F9D07F1C701CC6B2A642E9DB7D
:1027E0000DA10F4800F0A2FC42F210710DA0FFF7FE
:1027F00079FD28B10DA10A4800F098FC0120BFE73F
:102800000020BDE725640000D736000851360008D7
:102810004C360008003801402053544152542000E7
:102820000044004053454E44204F4B0053454E4416
:10283000204F4B09000000002DE9F34F93B00C46E8
:1028400003E05FA1654800F071FC1398FFF72AFFD1
:102850000028F6D062A1614800F068FC05A8FFF7E7
:1028600041FE1C2205A90CA8FDF745FF9DF830008C
:1028700003287DD1302261A107A8FDF73CFF6BA2A0
:1028800007CA04AB07C307A8FDF7D1FEC0B2039087
:1028900004A8FDF7CCFEC5B22046FDF7C8FEC6B2BF
:1028A000039830442844C7B26348FDF7C0FE00F0E7
:1028B000FF086248FDF7BBFE00F0FF096048FDF726
:1028C000B6FE00F0FF0A5F48FDF7B1FE00F0FF0B17
:1028D000002002903846FDF797FC019007A9019867
:1028E000FDF781FE324621460198FDF758FE2A4643
:1028F00004A90198FDF753FE39460198FFF734FF0C
:102900000198FDF7B0FC1420FFF744FB4046FDF7AB
:102910007BFC029048490298FDF765FE414602980B
:10292000FFF722FF0298FDF79EFC1420FFF732FB11
:102930004846FDF769FC029040490298FDF753FEB6
:1029400049460298FFF710FF0298FDF78CFC14200F
:10295000FFF720FB5046FDF757FC029038490298DC
:10296000FDF741FE51460298FFF7FEFE029800E097
:1029700022E0FDF778FC1420FFF70CFB5846FDF72A
:1029800043FC02902F490298FDF72DFE594602980C
:10299000FFF7EAFE0298FDF766FC1420FFF7FAFA4B
:1029A00029A10E4800F0C2FBFFF768FE18B12AA16A
:1029B0000A4800F0BBFB00BF15B0BDE8F08F000077
:1029C00057616974696E6720666F7220636F6E6EFF
:1029D000656374696F6E2E2E2E0D0A000044004050
:1029E00054637020636F6E6E656374696F6E2069E7
:1029F00073206F70656E0D0A00000000474554207B
:102A00002F7570646174653F6170695F6B65793DB6
:102A10005548464C315230344F43313259383132B7
:102A2000266669656C64313D0000000020485454FE
:102A3000502F312E310D0A00373700085237000869
:102A400060370008A43700080D0A5061636B657495
:102A50002073656E740D0A0054435020636F6E6ED0
:102A6000656374696F6E20697320636C6F7365644E
:102A70000D0A00002DE9F04186B005464FF0000830
:102A80000026002202216E48FFF7C6FC42F21071B8
:102A90006C48FFF727FC8046B8F1000F73D06AA19D
:102AA0006B48FDF78EFD0446002C6DD0E41D06E05A
:102AB00014F8012B3046711CCEB201A90A542078BB
:102AC0000D28F5D1002001A9885501A8FDF75AFD70
:102AD0000746022F06D0032F07D0042F08D0052F5A
:102AE0000CD108E00220287008E00320287005E0DF
:102AF0000420287002E00520287000BF00BF1421C8
:102B000001A8FDF74CFE002652A15148FDF759FDE2
:102B10000446002C72D00B3406E022783046711C3B
:102B2000CEB201A90A54641C20782C28F5D10020CB
:102B300001A9885501A8FDF725FD0746AF701421AE
:102B400001A8FDF72CFE0026A41C06E014F8012BBA
:102B50003046711CCEB201A90A5420782228F5D142
:102B6000002001A988553EA101A8FDF73FFE10B93C
:102B70000021E9700BE03BA101A8FDF737FE20B969
:102B80000121E97003E058E055E00221E9701421C9
:102B900001A8FDF704FE00260027E41C06E014F857
:102BA000012B3146701CC6B2281D425420782228C1
:102BB000F5D1002001A98855142101A8FDF7EFFDEA
:102BC00000260027A41C06E022783046711CCEB2F5
:102BD00001A90A54641C20782C28F5D1002001A9F1
:102BE000885501A8FDF7CEFC0746AF82142101A845
:102BF000FDF7D5FD00260027641C07E019E02278C8
:102C00003046711CCEB201A90A54641C20780D28EC
:102C1000F5D101A8FDF7B6FC074617B900212976C2
:102C200003E0012F01D101212976012006B0BDE882
:102C3000F0810120FAE70020F8E70020F6E7000025
:102C4000C23600084C3600085354415455533A00DC
:102C5000440100202B4349505354415455533A00EA
:102C6000544350005544500010B5FFF70DFA07A12A
:102C7000084800F05BFA42F210710748FFF732FB98
:102C800008B1012010BD0020FCE7000041540D0AEE
:102C900000000000003801404C36000808488069F8
:102CA00040F01000064988610648406820F4400062
:102CB000044948600846406840F480104860704706
:102CC000001002400010014086B000F0C9F800F08A
:102CD00071F900F0CDF9FFF7E1FF00F03FF9FFF7E0
:102CE0007BF9FEF7F1FE00BB3248FEF7A7FFE0B12B
:102CF000304800782F4949782E4A92782D4BDB785E
:102D0000CDE90232CDE904102A48007929494979F0
:102D1000CDE9001027488379C27927A13248FDF711
:102D2000C9FA3149314800F028FAFFF797F918B18C
:102D30002FA12E4800F021FA07E031A12B4800F026
:102D4000F5F941F28830FFF725F901213048FFF706
:102D5000A9F90028F1D02FA1244800F0E7F900F0EC
:102D6000DDF825E04DF6BF20FFF714F91C20FEF733
:102D70007DFE1D20FEF77AFE2B48FFF77BFE68B133
:102D800029480078052804D128A1184800F0CEF978
:102D900008E02C492C48FFF74FFD03E02BA1134816
:102DA00000F0C4F91C20FEF76DFE1D20FEF76AFE40
:102DB000D8E700000400002044533138423230206C
:102DC000524F4D20253032782530327825303278F8
:102DD00025303278253032782530327825303278F7
:102DE00025303278200D0A00E00000200044004029
:102DF000496E697420737563636573730D0A00000F
:102E00004E6F20636F6E6E656374696F6E0D0A009E
:102E100034000020436F6E6E6563742073756363C6
:102E20006573730D0A0000000E00002045535038F2
:102E300032363620535441545553204E4F5749464D
:102E4000490D0A007C000020280000204572726FA6
:102E5000720D0A00014800687047000064000020FD
:102E60002C48006840F480302A49086000BF294897
:102E7000006800F400300028F9D0132026490860CB
:102E800024484068234948600846406840F4A060F0
:102E900048600846406840F4205048600846406852
:102EA00020F4701048600846406820F48030486084
:102EB0000846406820F4003048600846406840F406
:102EC000803048600846406848600846406840F4E2
:102ED000E01048600846006840F08070086000BF5D
:102EE0000C48006800F000700028F9D009484068DC
:102EF00020F00300074948600846406840F002009F
:102F0000486000BF0348406800F00C000828F9D171
:102F100070470000001002400020024010B50E482B
:102F2000C06940F001000C49C86148F69F4089041F
:102F3000088542F20F7088850020888401208882ED
:102F40008007808940F001008881012008801C20D2
:102F5000FEF7A3FD10BD00000010024010B513489D
:102F6000C06940F002001149C86148F69F4010490D
:102F7000088040F2E730091D088000200C49091F35
:102F8000088001200A491439088009481C38008843
:102F900040F0010006491C39088001200449283905
:102FA00008801D20FEF779FD10BD000000100240D2
:102FB0002804004010B52B48806940F4804029491E
:102FC00088610846806940F004008861084680698D
:102FD00040F0010088612448006820F0C0002249C8
:102FE00008600846006840F08000086008460068F5
:102FF00040F0100008600846006820F44060086057
:103000000846006840F4806008600846006820F4C4
:10301000807008609C2015490880081D008840F4D5
:103020000050091D08800846008840F0080008800C
:103030000846008840F0040008800846008840F0F8
:10304000200008800846008820F480500880081D71
:10305000008820F44050091D08802520FEF728FD37
:1030600010BD000000100240040801400838014073
:1030700010B52B48C06940F400302949C8610846A2
:10308000806940F0040088610846806940F00100D2
:1030900088612448006820F440602249086008469E
:1030A000006840F4006008600846006840F48070E2
:1030B00008600846006820F4404008600846006840
:1030C00040F4804008600846006820F480500860A2
:1030D0009C2015490880081D008840F40050091DF7
:1030E00008800846008840F00800088008460088EC
:1030F00040F0040008800846008840F02000088066
:103100000846008820F480500880081D008820F4BC
:103110004050091D08802620FEF7CAFC10BD0000A3
:103120000010024000080140084400402DE9F04131
:1031300004460D462846FDF77AFA87B2002610E0CD
:10314000208820F0400020802978204600F00DF8EB
:1031500000BF208800F040000028FAD06D1C701CD1
:1031600086B2BE42ECDBBDE8F08100BF028802F00F
:103170008002002AFAD08180704730B505460B46A0
:10318000002406E02046621CD4B2195C2846FFF7F2
:10319000ECFF185D0028F5D130BD000010B5002906
:1031A0000AD00878002807D005487844FDF71EFBB0
:1031B000002801D0002010BD0248784410BD000056
:1031C000660700005E07000010B500290AD00878E5
:1031D000002807D005487844FDF708FB002801D0F7
:1031E000002010BD0248784410BD000056070000C2
:1031F0004E0700000808A0F500114FEA31017047A2
:1032000043004FEAD30C4FEA3C0C43401FBF40073A
:103210000CF1605113F0FE4F70471CF0006F03D1AA
:1032200000200CF0004170470CF0004343EA50705E
:1032300010B540EACC0000F046F900BF0000009253
:103240004FEA0001FFF7D6BF4FF000414FF00000FA
:10325000A1F500217047000090EA010F48BF81F0FE
:10326000004100F18281421A3CBF801A89184FEA5E
:10327000D0524FF07F4C1CEA410FA2EBD15318BF44
:103280009CEA026F00F03B804FF0004C4CEA0020BB
:103290004CEA012121FA03FC10EB0C0C1ED202F1C6
:1032A000FF325FEA1C2040EBC25038BF70471CF071
:1032B0007F0F4FEA400C18BFBCF17F4F38BF7047FB
:1032C000C3F12003994008BF20F00100BCF17F4FFB
:1032D00038BF7047A0F1C04000F03BB94FEA3C0056
:1032E000000A40EBC25028BF1CF0FF0F4FEA400C11
:1032F000E6D018BFBCF17F4F38BF7047EAE79CEAC1
:10330000026F05D010EA5C0F08BF00F00040704764
:1033100010B500F0D8F800BF64FBBE3E4FF47F0C40
:103320001CEAD0121EBF1CEAD11392EA0C0F93EADA
:103330000C0F00F0858090EA010F48BF42F48072C4
:1033400040F4000C41F400002CF07F4120F07F405D
:1033500000B58142A2EB03020FF2081CACEB504E09
:10336000C0F100009EF800E04FEA4E0E00FB0EFC9C
:1033700038BF49004FEA2C1C02F5FA020CFB0EF391
:103380004FEACE1E4FEA112C4FEAC1210EEB635ECD
:1033900042EB22420EFB0CFC4FEA1C5300FB0311D4
:1033A0004FEA112C4FEA01310EFB0CFC4FEADC4CCA
:1033B00000FB0C11C14228BF09184CEB03335DF828
:1033C00004EB10EB410143EBC250B2F57C0F38BF68
:1033D000704729D512F0F00F1CBF00F1C04000F07B
:1033E00000407047008182838485868788898B8C22
:1033F0008D8E8F919293959697999A9C9D9FA0A25E
:10340000A3A5A7A8AAACAEB0B2B3B5B7B9BCBEC0AD
:10341000C2C5C7C9CCCED1D4D7D9DCDFE2E6E9EC4E
:10342000F0F3F7FAFE0000004FEA400C0CF1807C4C
:10343000BCF17E4F28BF7047B0F1C04000F089B8A2
:1034400090EA010F0CEAD11348BF42F48072624542
:1034500038BF634507D213F47F0F16D080EA01000E
:1034600000F00040704710B500F02DF8097EFC3EDA
:1034700000F005B880EA010000F00040704780EAE3
:10348000010000F0004000F064B812F47F0F04BFA8
:103490000248704780EA010000F05BB80000C07F7E
:1034A000B0FA80F310FA03F2C3F19D030AD0D905F4
:1034B00001EB1220530638BF704700F1010008BF2E
:1034C00020F0010070470EF1020E2EF0030E5EF8A0
:1034D000044B244204D44FEA4102B2F17F4F11D889
:1034E0004FEA4003B3F17F4F0CD80ED14FEAD07CA6
:1034F000B2F17F4F0CEB4C0C0CF1020C08BF4CEB03
:10350000D17C04E04FF0080C01E04FEAD17C0CEBD9
:103510004C0324FA03F404F00704B4F1040C06D2BB
:103520000EEB840CBDE810404CF0010C6047DFE866
:103530000CF0070802024FF00040A0F5800010BD1B
:103540000846420018BFD2F1807288BF00F00040E8
:1035500010BDFF2141EAD050C005704790EA010F2D
:1035600048BF81F000413FF57EAE421A04D882F098
:103570000042A0EB020011444FEAD0524FF07F4CC2
:103580001CEA410FA2EBD15318BF9CEA026F4AD04C
:103590004FF0004C4CEA00204CEA012121FA03FCD8
:1035A000B0EB0C0C0FD412F0FE0F36D05FEA4C00DB
:1035B0001DD5001240EBC25038BF70471CF03F0FC2
:1035C00018BF70470BE0A2F101025FEA1C2040EB3C
:1035D000C25038BF70471CF07F0F18BF7047C3F14F
:1035E0002003994014BF401E20F00100704780085E
:1035F0004FEA122308BF7047B0FA80FCA2EB0C021E
:10360000CCF1280C60FA0CF093EA122F04BF00EB07
:10361000C25070474FEAC3707047130A5FEADC106C
:1036200008BF7047F6E79CEA026F04D010EA5C0F0F
:1036300008BF0020704710B5FFF745FF40DFF63E9A
:1036400081F000407047FDF79DBA00004F4B0D0A16
:10365000004552524F520D0A004641494C007265D6
:10366000616479002B4950442C002B43495053543A
:103670004154555300002B525354002B474D5200D8
:103680004531004530002B55415254002B43574DD6
:103690004F4445002B43574A4150002B43574C4160
:1036A00050002B4357514150002B4357534150007A
:1036B0002B43574C4946002B4349505354414D41ED
:1036C00043002B434950535441545553002B434915
:1036D000505354415254002B43495053454E4400DB
:1036E0002B434950434C4F5345002B4349465352BB
:1036F000002B4349504D5558002B434950534552D8
:10370000564552002B4349504D4F4445002B5049DC
:103710004E47005354415455533A32005354415488
:1037200055533A33005354415455533A340053548B
:10373000415455533A3500486F73743A20617069AB
:103740002E7468696E67737065616B2E636F6D0DA3
:103750000A004163636570743A202A2F2A0D0A001B
:10376000557365722D4167656E743A204D6F7A69A5
:103770006C6C612F342E302028636F6D706174691A
:10378000626C653B2065737038323636204C75614B
:103790003B2057696E646F7773204E5420352E316D
:1037A000290D0A000D0A00000500000000000000BD
:1037B0000000000000000000000000000000000009
:1037C00000003031323334353637383941424344E2
:1037D0004546403058003031323334353637383989
:1037E0006162636465664030780004000008000090
:1037F0000000000000020001000010000240000074
:10380000000000A00000000005400000000000C80B
:10381000000000000C4000000000409C0000000080
:10382000194000000020BCBE000000003440000031
:10383000BFC91B8E00000004B5400000504BCFD024
:103840006607E2CF010000006C4100003E8251AAF1
:10385000DFEEA73401000000D9420000DCB5A0E291
:103860003A301F97FFFFFFFFB4450000FD25A0C8B9
:10387000E9A3C14FFFFFFFFFFF3F000000000080F2
:1038800000000000FF3F000000000080000000007A
:103890007061737330303030000000003830000049
:1038A0003138342E3130362E3135332E3134390023
:1038B0004D795F57494649003131353235000000B6
:1038C000374469635F554D4657533968000000001F
:1038D0006D31352E636C6F75646D7174742E636F0A
:1038E0006D000000636274746E626778000000000F
:1038F0003C3A0008000000207C000000280100087D
:10390000B83A00087C000020B40900004401000817
:103910001C00000043000000F8FFFFFF0C00000047
:103920000E0000000F0000002E000000100100003B
:1039300043000000F8FFFFFF00404040404040408F
:103940004040414141414140404040404040404072
:103950004040404040404040400502020202020216
:103960000202020202020202022020202020202065
:103970002020200202020202020290909090909079
:103980001010101010101010101010101010101037
:1039900010101010020202020202888888888888AB
:1039A0000808080808080808080808080808080897
:1039B000080808080202020240000000000000009F
:1039C00000000000000000000000000000000000F7
:1039D00000000000000000000000000000000000E7
:1039E00000000000000000000000000000000000D7
:1039F00000000000000000000000000000000000C7
:103A000000000000000000000000000000000000B6
:103A100000000000000000000000000000000000A6
:103A20000000000000000000000000000000000096
:103A30000000000000000000000000000000000086
:103A40000000000000000000000005000000000071
:103A50000000000000000000000000000000000066
:103A600000000000A03800089C380008000000009A
:103A7000B038000890380008000000000000000086
:103A80000000000000000000000000000000000036
:103A9000D0380008B8380008E4380008C0380008FA
:103AA0000000000000A24A04000000000000000026
:083AB0000102030406070809E6
:04000005080001C925
:00000001FF
